:100200000C94510C0C94790C0C94790C0C94790C82
:100210000C94790C0C94790C0C94790C0C94790C4A
:100220000C94790C0C94790C0C94790C0C94790C3A
:100230000C94790C0C94790C0C94D9460C947C4752
:100240000C94790C0C94AB460C9485460C94790C68
:100250000C94790C0C94790C0C94790C0C94790C0A
:100260000C94790C0C945D460C94790C0C94790CDC
:100270000C94790C0C94790C0C94790C0C94790CEA
:100280000C94790C0C94790C0C94790C0C94790CDA
:100290000C94790C0C94790C0C94790C0C94790CCA
:1002A00000000000000000002B2B6164647220330A
:1002B0000A2B2B6175746F20300A4D330A002B2BEB
:1002C0006164647220390A2B2B6175746F20320AC5
:1002D0002A5253540A3A66756E632027766F6C74FF
:1002E0003A616327003F202D204D656E7500312057
:1002F0002D205365742049502061646472657373C6
:10030000004552524F52202D20436F6D6D616E6437
:1003100020627566666572206F766572666C6F77AF
:1003200021005472616E736D6974206661696C6539
:10033000642100496E76616C696420706172616D40
:1003400065746572004D697373696E6720706172C0
:10035000616D657465720020616E64200056616C89
:1003600069642072616E67652069732062657477C5
:1003700065656E2000756E7365740053454320619A
:100380006464726573732073657420746F3A20001F
:1003900050524920616464726573732073657420E0
:1003A000746F3A200043616E6E6F742061646472F2
:1003B0006573732074686520636F6E74726F6C6C04
:1003C00065722100206D696C6C697365636F6E6482
:1003D0007300536574205B726561645F746D6F5F59
:1003E0006D735D20746F3A200053657420454F5340
:1003F00020746F3A200053657420454F4920617383
:1004000073657274696F6E3A2000496E7465726626
:10041000616365206D6F64652073657420746F3A45
:100420002000417070656E64696E67206F662045BC
:100430004F54206368617261637465723A200045AD
:100440004F542073657420746F20415343494920F1
:100450006368617261637465723A20004175746FFC
:10046000206D6F64653A200020202020202020206D
:10047000202761646472657373656420746F2074EF
:10048000616C6B20627574206E6F7468696E672092
:10049000746F2073617927206572726F72730057D1
:1004A00041524E494E473A206175746F6D6F6465D5
:1004B000204F4E2063616E20636175736520736FFA
:1004C0006D65206465766963657320746F20676568
:1004D0006E65726174650041523438382047504966
:1004E0004220636F6E74726F6C6C65722C2076653F
:1004F000722E20302E35332E33392C2032392F30C6
:10050000312F32303236004152343838204750498A
:100510004220636F6E74726F6C6C65722C2076650E
:10052000722E20302E35332E33392C2032392F3095
:10053000312F3230323600526561645E4F4B0046D7
:1005400061696C656420746F2073656E6420534428
:1005500043004661696C656420746F2073656E6446
:10056000204C4C4F21004661696C656420746F20FB
:1005700073656E6420756E6976657273616C204C6C
:100580004C4F2E004661696C656420746F20736562
:100590006E64204C4F432100494643207369676EC7
:1005A000616C20617373657274656420666F72207C
:1005B000313530206D6963726F7365636F6E64737C
:1005C0000047726F75702074726967676572206387
:1005D0006F6D706C657465642E004661696C65644E
:1005E00020746F207472696767657220646576692C
:1005F000636521005265736574204641494C45444A
:100600002E0053657269616C20706F6C6C20636F93
:100610006D706C657465642E004661696C6564205C
:10062000746F207265747269657665207374617485
:10063000757320627974652066726F6D20005D208D
:1006400066726F6D206465766963652061742061F0
:100650006464726573733A200052656365697665F8
:1006600064207374617475732062797465205B0013
:100670002C005352513A0053657269616C20706FBF
:100680006C6C206F6620616C6C20646576696365B4
:1006900073207265717565737465642E2E2E005318
:1006A000657474696E67732073617665642E004C9F
:1006B0004F4E3A20002B2B004E6F7420666F756EE4
:1006C000642E00457874656E646564206375737488
:1006D0006F6D20636F6D6D616E6473203E0A617390
:1006E000706F6C6C3A0953657269616C20706F6C45
:1006F0006C20616C6C20696E737472756D656E74BC
:10070000732028616C696173203D202B2B73706FFF
:100710006C6C20616C6C290A64636C3A090953653E
:100720006E6420756E6164647265737365642028FD
:10073000616C6C292064657669636520636C656112
:100740007220205B706F776572206F6E2072657308
:1007500065745D2028697320746865207273743F26
:10076000290A64656661756C743A0953657420637F
:100770006F6E66696775726174696F6E20746F2041
:10078000636F6E74726F6C6C657220646566617500
:100790006C742073657474696E67730A666C616744
:1007A000733A0909446973706C61792068616E64F9
:1007B0006873616B696E6720666C616773202D20BA
:1007C00062697473203020312026203220636F6EDE
:1007D00074726F6C2052656164792C20526561647B
:1007E0004F6B20616E642053656E644F4B0A6964E1
:1007F0003A090953686F7720696E746572666163A0
:100800006520494420696E666F726D6174696F6E10
:10081000202D2073656520616C736F203E20276951
:1008200064206E616D65273B2027696420736572C3
:1008300069616C273B202769642076657273747246
:10084000270A6964206E616D653A0953686F772FD6
:1008500053657420746865206E616D65206F662035
:1008600074686520696E746572666163650A69649F
:100870002073657269616C3A0953686F772F53650D
:1008800074207468652073657269616C206E756D83
:10089000626572206F662074686520696E74657287
:1008A000666163650A6964207665727374723A09D9
:1008B00053686F772F53657420746865207665726E
:1008C00073696F6E20737472696E672073656E74DE
:1008D00020696E207265706C7920746F202B2B76E6
:1008E000657220652E672E2022475049422D5553B0
:1008F0004222292E204D61782034372063686172AE
:10090000732C20657863657373207472756E6361F0
:100910007465642E0A69646E3A0909456E61626CF9
:10092000652F44697361626C65207265706C792013
:10093000746F202A69646E3F202864697361626C59
:1009400065642062792064656661756C74290A6D3E
:100950006163726F3A090952756E2061206D61639F
:10096000726F20286966206D6163726F20737570E5
:10097000706F727420697320636F6D70696C656449
:10098000290A666E646C3A090946696E64206C69CE
:1009900073746E6572730A70706F6C6C3A090943F8
:1009A0006F6E64756374206120706172616C6C6538
:1009B0006C20706F6C6C0A72656E3A090941737332
:1009C000657274206F7220556E6173736572742046
:1009D0007468652052454E207369676E616C0A72B7
:1009E00065706561743A09526570656174206120B3
:1009F000676976656E20636F6D6D616E6420616EF0
:100A0000642072657475726E20726573756C740AF9
:100A100073656E643A090953656E6420746F2047EC
:100A200050494220616464726573733B20652E6790
:100A30002E202B2B73656E642032322C2A69646E53
:100A40003F0A736574767374723A0944455052458F
:100A50004341544544202D20736565206964207608
:100A600065727374720A7372716175746F3A0941B9
:100A700075746F6D61746963616C6C7920636F6EFE
:100A8000647563742073657269616C20706F6C6C3F
:100A9000207768656E20535251206973206173730B
:100AA00065727465640A7463743A09095369676E00
:100AB000616C2072656D6F7465206465766963652D
:100AC00020746F2074616B6520636F6E74726F6C3D
:100AD0000A746F6E3A090950757420636F6E7472F0
:100AE0006F6C6C657220696E2074616C6B2D6F6E1B
:100AF0006C79206D6F6465202873656E6420646175
:100B00007461206F6E6C79290A756E6C3A0909550B
:100B10006E6C697374656E20746865204750494235
:100B2000206275730A756E743A0909556E74616CAA
:100B30006B207468652047504942206275730A76BD
:100B40006572626F73653A09566572626F736520EC
:100B50002868756D616E207265616461626C6529DB
:100B6000206D6F64650A78646961673A09094275A6
:100B70007320646961676E6F73746963732028738F
:100B800065652074686520646F63290A0050726F80
:100B90006C6F67697820436F6D70617469626C6512
:100BA00020436F6D6D616E6473203E0A61646472F0
:100BB0003A0909446973706C61792F736574206414
:100BC000657669636520616464726573730A617533
:100BD000746F3A09094175746F6D61746963616C72
:100BE0006C7920726571756573742074616C6B200B
:100BF000616E64207265616420726573706F6E73DC
:100C0000650A636C723A090953656E642053656C1A
:100C100065637465642044657669636520436C652B
:100C2000617220746F2063757272656E7420475014
:100C3000494220616464726573730A656F693A0999
:100C400009456E61626C652F64697361626C652031
:100C5000617373657274696F6E206F6620454F49CA
:100C6000207369676E616C0A656F723A090953688F
:100C70006F77206F722073657420656E64206F66D5
:100C8000207265636569766520636861726163746B
:100C900065722873290A656F733A09095370656391
:100CA0006966792047504942207465726D696E61AA
:100CB00074696F6E206368617261637465720A653E
:100CC0006F745F636861723A095365742063686189
:100CD00072616374657220746F20617070656E64F8
:100CE00020746F20555342206F757470757420778F
:100CF00068656E20454F5420656E61626C65640ABC
:100D0000656F745F656E61626C653A09456E61621C
:100D10006C652F44697361626C6520617070656EEB
:100D200064696E67207573657220737065636966A8
:100D30006965642063686172616374657220746FB1
:100D400020555342206F7574707574206F6E204566
:100D50004F4920646574656374696F6E0A68656CD9
:100D6000703A090954686973206D6573736167652A
:100D70000A6966633A0909417373657274204946CA
:100D800043207369676E616C20666F722031353065
:100D9000206D6973636F7365636F6E6473202D20BC
:100DA0006D616B6520415234383820636F6E747208
:100DB0006F6C6C657220696E206368617267650A8A
:100DC0006C6C6F3A09094C6F63616C206C6F636BDC
:100DD0006F7574202D2064697361626C6520667282
:100DE0006F6E742070616E656C206F7065726174D7
:100DF000696F6E206F6E20696E737472756D656EAB
:100E0000740A6C6F633A0909456E61626C6520660D
:100E1000726F6E742070616E656C206F70657261A8
:100E200074696F6E206F6E20696E737472756D6574
:100E30006E740A6C6F6E3A090950757420636F6E98
:100E400074726F6C6C657220696E206C6973746566
:100E50006E2D6F6E6C79206D6F646520286C6973E0
:100E600074656E20746F20616C6C207472616666AC
:100E70006963290A6D6F64653A09095365742074C2
:100E8000686520696E74657266616365206D6F6464
:100E9000652028313D636F6E74726F6C6C65722FC4
:100EA000303D646576696365290A726561643A0953
:100EB000095265616420646174612066726F6D20FF
:100EC000696E737472756D656E743B20652E672E46
:100ED0002063757272656E746C79206164647265EA
:100EE00073736564203E202B2B726561643B207216
:100EF0006561642066726F6D2061646472203E20BB
:100F00002B2B72656164204032320A726561645F26
:100F1000746D6F5F6D733A09526561642074696D19
:100F2000656F7574207370656369666965642062B6
:100F300065747765656E2031202D20333030302088
:100F40006D696C6C697365636F6E64730A72737438
:100F50003A090952657365742074686520636F6E81
:100F600074726F6C6C65720A736176656366673A5A
:100F7000095361766520636F6E6669677261746993
:100F80006F6E0A73706F6C6C3A0909536572696110
:100F90006C20706F6C6C207468652061646472658D
:100FA0007373656420686F7374206F7220616C6C5A
:100FB00020696E737472756D656E74730A737271E5
:100FC0003A090952657475726E2073746174757391
:100FD000206F6620737271207369676E616C2028C0
:100FE000312D7372712061737365727465642F3073
:100FF0002D737271206E6F742061737365727465E6
:1010000064290A7374617475733A095365742074A2
:1010100068652073746174757320627974652074D7
:101020006F2062652072657475726E6564206F6EE4
:10103000206265696E6720706F6C6C656420286241
:1010400069742036203D205251532C20692E652092
:10105000535251206173736572746564290A747206
:10106000673A090953656E6420747269676765722F
:1010700020746F2073656C656374656420646576A5
:10108000696365732028757020746F203135206185
:101090006464726573736573290A7665723A090927
:1010A000446973706C6179206669726D77617265ED
:1010B0002076657273696F6E0A0053656E64696E9F
:1010C000672044434C206661696C65640045455067
:1010D000524F4D2065726173656421005365742021
:1010E000454F5220746F3A2000506172616C6C65FC
:1010F0006C20706F6C6C20636F6D706C65746564D0
:101100002E0052454E3A200050524F4D3A20004F8B
:101110004646004F4E206275666665726564004FF4
:101120004E20756E627566666572656400544F4E3A
:101130003A20004D697373696E6720706172616D4A
:101140006574657273004D697373696E67207061B1
:1011500072616D6574657200537769746368656464
:1011600020746F20646576696365206D6F64652EF9
:1011700000207375636365656465642E0020666195
:10118000696C6564210053656E64696E6720544321
:101190005420746F206465766963652061742061F2
:1011A00064647265737320005468617420697320ED
:1011B0006D7920616464726573732120506C656180
:1011C00073652070726F766964652074686520614C
:1011D000646472657373206F6620612072656D6F41
:1011E0007465206465766963652E00496E76616C6E
:1011F00069643A20303D64617461206275733B20FC
:10120000313D636F6E74726F6C2062757300444978
:101210004F380044494F370044494F360044494F46
:10122000350044494F340044494F330044494F325C
:101230000044494F310041544E0053525100524531
:101240004E00454F4900444156004E524644004E20
:101250004441430049464300415234383820475006
:10126000494220636F6E74726F6C6C65722C2076CD
:1012700065722E20302E35332E33392C2032392F03
:1012800030312F323032360053657269616C206E16
:10129000756D626572206D757374206E6F74206554
:1012A0007863656564203920636861726163746581
:1012B000727321004C656E677468206F66206E61E2
:1012C0006D65206D757374206E6F7420657863652D
:1012D000656420313520636861726163746572737F
:1012E00021004C656E677468206F662076657273A6
:1012F000696F6E20737472696E67206D75737420E8
:101300006E6F742065786365656420343820636887
:1013100061726163746572732100566572537472F1
:101320003A200020776974682073657269616C20C7
:101330006E756D6265720053656E64696E672049F3
:10134000444E3A2000526561645E4F4B004661692D
:101350006C656420746F2073656E6420554E4C007C
:101360004661696C656420746F2073656E642055F6
:101370004E5400556E7265636F676E697A656420BE
:10138000636F6D6D616E64000A436F6D6D616E64B5
:101390002061626F727465642E000A496E76616C1A
:1013A0006964204950206164647265737320666FBC
:1013B000726D61742E00596F752077696C6C206EA8
:1013C00065656420746F207265626F6F74206E6F44
:1013D000772E000A49502041646472657373207748
:1013E000696C6C2062652073657420746F3A20000C
:1013F000456E7465722074686520646573697265F2
:101400006420495020616464726573732028302E13
:10141000302E302E30206D65616E733A2075736505
:101420002044484350293A200076696120444843CB
:10143000502E00436F6E666967757265642049506F
:1014400020416464726573733A20000A43757272B6
:10145000656E7420495020416464726573733A204C
:10146000002D205352414D206C6566743A2000498E
:101470006E697469616C6973696E67204545505285
:101480004F4D2E2E2E2E00454550524F4D2043528B
:101490004320636865636B206661696C65642E2018
:1014A00045726173696E6720454550524F4D2E2E2F
:1014B0002E2E002121204E6F2076616C6964204918
:1014C0005020616464726573732061737369676E21
:1014D00065642E20506C6561736520636865636B7D
:1014E00020796F7572206E6574776F726B207365EB
:1014F0007474696E67732E0049502041646472658C
:1015000073733A20004661696C656420746F2073C0
:101510007461727420544350207365727665720052
:101520004D6178696D756D206E756D626572206FA5
:1015300066206368617261637465727320697320E9
:101540007265616368656420696E206120636F6DF8
:101550006D616E64207465787400005365747570F5
:1015600020636F6D706C6574652E005374617274C6
:10157000696E672053657269616C204D656E752ECA
:101580002E2E005374617274696E672050726F6CF6
:101590006F676978205443502073657276657220B6
:1015A0006F6E20706F727420313233342E2E2E0005
:1015B00057616974696E6720666F722044484350B2
:1015C0002E2E2E0054686520646576696365732746
:1015D000732064656661756C742061646472657300
:1015E0007320706F696E747320746F204750494286
:1015F00020616464726573732000436F6E6669676F
:101600007572696E6720616E6420537461727469CB
:101610006E672047504942206275732E2E2E004D72
:10162000414320416464726573733A2000457468D5
:1016300065726E6574324750494220476174657720
:1016400061792076322E3320284152343838207682
:10165000302E35332E3339290A00BE02A802A702E4
:10166000A602A502A402A302A202A102A002446F44
:101670006E652E00436C656172696E672E2E2E00BA
:101680004572726F72207768696C65207265636558
:101690006976696E6720646174612E0052656164C9
:1016A0005E4F4B00526561645E4F4B00202D3E2023
:1016B00063616E63656C6C6174696F6E20210020DC
:1016C0002D3E2063616E63656C6C6174696F6E2082
:1016D0002100202D3E20746F6F206D616E79206196
:1016E0007267756D656E7473202120286F6E65209A
:1016F000636861726163746572206F6E6C79290032
:1017000000202D3E204E6F20636F6D6D616E642052
:10171000636F6465206D61746368696E6720210082
:10172000202D3E20746F6F206D616E79206172678D
:10173000756D656E7473202120286F6E6520636857
:1017400061726163746572206F6E6C7929002C2060
:10175000506C6561736520696E666F726D20796F7C
:10176000757220636C69656E747321004950204165
:1017700064647265737320686173206368616E6767
:10178000656420746F200049502041646472657361
:101790007320686173206265656E20617373696789
:1017A0006E65643A200045746865726E6574206CDD
:1017B000696E6B206973204F4B206E6F7700526506
:1017C00073657474696E6720616C6C20636C696505
:1017D0006E7420636F6E6E656374696F6E732E2E08
:1017E0002E002069732077726F6E672E20506C6513
:1017F00061736520636865636B2044484350210032
:1018000049502041646472657373200045746865B3
:10181000726E6574206C696E6B206973204F46464A
:1018200000676574436D643A20636F6D6D616E642B
:10183000206E6F7420617661696C61626C652069ED
:101840006E2074686973206D6F64652E0053656E39
:10185000645E4F4B00496E74657266616365206D0E
:10186000697374616B652077697468206C69627252
:101870006172792053657269616C53657269616C3C
:101880004D656E75436D64004E6F204D656E75201D
:10189000696E206D656D6F7279003E0000003448FE
:1018A0003A5411241FBECFEFCDBFDFE3DEBF18E2F5
:1018B000A0E0B8E2EEEEFDEB02C005900D92AA3179
:1018C000B107D9F72BE2AAE1B8E201C01D92AE3A06
:1018D000B207E1F71CE0C0E5DCE004C02197FE019F
:1018E0000E94E85ACF34D107C9F70E9476490C9478
:1018F000A55C0C9400018F929F92AF92BF92CF9201
:10190000DF92EF92FF920F93CF93DF9380910B2A98
:10191000882319F081FF0DC07894DF91CF910F914A
:10192000FF90EF90DF90CF90BF90AF909F908F90FF
:10193000089580FFF2CF80900D2A90900E2AA090FB
:101940000F2AB090102AC12CD12C7601E0E094012E
:10195000A501B601C701A0E00E94125B91F12170C0
:1019600030E040E050E060E070E080E090E00E9415
:10197000125BD1F0B0E0A0E0E03370F4AE2FA6959A
:10198000A695A69580E2A89FD0011124A05FBB4F29
:101990008E2F8770A80FB11DCE2FD0E0CB5FD54D15
:1019A00088899C91892B8C939401A501B601C7016C
:1019B00001E00E94F75A49015A016B017C01EF5F77
:1019C000C6CF8090112A9090122AA090132AB0902E
:1019D000142AC12CD12C7601E0E29401A501B601B4
:1019E000C701A0E00E94125B09F497CF217030E09C
:1019F00040E050E060E070E080E090E00E94125B28
:101A0000D1F0B0E0A0E0E03370F4AE2FA695A6953B
:101A1000A69580E2A89FD0011124A05FBB4F8E2F16
:101A20008770A80FB11DCE2FD0E0CB5FD54D888930
:101A30009C91892B8C939401A501B601C70101E00B
:101A40000E94F75A49015A016B017C01EF5FC5CF33
:101A500000008093C4088091C30887FFFCCF809169
:101A6000C40808950F931F93CF93DF93EC018C016B
:101A7000060F171FC017D10729F088810E94280D73
:101A80008993F8CFDF91CF911F910F9108958F9295
:101A90009F92AF92BF92CF92DF92EF92FF920F93FD
:101AA0001F93CF93DF93182FF92F80910B2A882350
:101AB00019F081FF12C0F8941093C008F093C10888
:101AC000DF91CF911F910F91FF90EF90DF90CF901A
:101AD000BF90AF909F908F90089580FFEDCF809042
:101AE0000D2A90900E2AA0900F2AB090102AC12C97
:101AF000D12C7601E0E09401A501B601C701A0E078
:101B00000E94125BA9F1217030E040E050E060E0FB
:101B100070E080E090E00E94125BE9F0D0E0C0E06D
:101B2000E03370F4CE2FC695C695C69580E2C89F67
:101B3000E0011124C05FDB4F8E2F8770C80FD11DCD
:101B40008E2F90E028818B5F954DDC0150962C9371
:101B50008881887F88839401A501B601C70101E0CF
:101B60000E94F75A49015A016B017C01EF5FC3CF14
:101B70008090112A9090122AA090132AB090142AD3
:101B8000C12CD12C7601E0E29401A501B601C70178
:101B9000A0E00E94125B09F48FCF217030E040E09A
:101BA00050E060E070E080E090E00E94125BE9F0BD
:101BB000D0E0C0E0E03370F4CE2FC695C695C69550
:101BC000B0E2CB9FE0011124C05FDB4F8E2F877006
:101BD000C80FD11D8E2F90E028818B5F954DDC01C1
:101BE00050962C938881887F88839401A501B60143
:101BF000C70101E00E94F75A49015A016B017C01BB
:101C0000EF5FC2CFFC01BC01645A7F4F8FEF9FEFA3
:101C10002191322F3927232F22952F702327422FEE
:101C200050E0382FCA01982F88279295907F282757
:101C30003927CA01B5E0880F991FBA95E1F78227C5
:101C400093276E177F0721F70895E6E0FBE28CE506
:101C5000DF011D928A95E9F782E0828381E0848327
:101C60008FEF858380EB94E081879287089520E34E
:101C7000FC0120833296862F82958F706F706A30B8
:101C800030F4605D6293682F8111F5CF0895695C2F
:101C9000F9CFFC01818D928D08950895CF93DF9344
:101CA00090E0FC01E15DF54020812F3F61F0FC01F7
:101CB000EA5FF540E08130E2E39FF0011124FC5F30
:101CC000613021F42183DF91CF91089583529640B2
:101CD000EC01A881AF3F69F0CF014096A80FB92F62
:101CE000B11D9FB7F89422838C9188608C939FBF1D
:101CF000EACFB0E0A0E0F5CF90E0FC01EC54F64074
:101D0000E081EE2319F1E13021F000F1E630A8F096
:101D1000089583529640FC012081233008F02F5F04
:101D20003091010A81E090E001C0880F2A95EAF71E
:101D3000809583238093010A089580E1E89FF00154
:101D40001124E05AF54F81818F7E818308950F938E
:101D50001F93CF93DF93C82FD0E0FE01E15DF540E4
:101D600000810F3FA1F0162F893210F40E947C0EE3
:101D7000FE01EA5FF540E08180E2E89FF001112476
:101D8000FC5F8081802351F0111106C00683DF9132
:101D9000CF911F910F9108950583F9CFC352D6407B
:101DA0008881309771F08F3F61F07096E80FF11DD8
:101DB0009FB7F8948081111107C0877F80839FBFF0
:101DC000E6CFF0E0E0E0F4CF8860F8CF0F931F9308
:101DD000CF93082F10E0F801E15DF540C081CF3FBF
:101DE00079F00E947C0EF801EA5FF540E08180E224
:101DF000E89FF0011124FC5F8085C82381E009F48D
:101E000080E0CF911F910F9108950E94E60E91E01E
:101E1000811190E0892F0895893210F40C94A70E57
:101E20000895EF92FF920F931F93CF93DF93E82EC5
:101E3000F12CF701E352F64000810F3FD9F1EB019D
:101E4000182F61E00E944E0E209751F460E0812F20
:101E5000DF91CF911F910F91FF90EF900C940C0F99
:101E6000CF3FD10511F461E0F2CFF701EC54F64019
:101E7000E081E13039F010F0E63030F1C038D105C2
:101E800094F7E4CFE02FF0E0EE0FFF1F0330C8F02F
:101E9000ED5DF54F0F5F8FB7F894C0838FBF8091D2
:101EA000010A21E030E001C0220F0A95EAF7822BF7
:101EB0008093010ADF91CF911F910F91FF90EF90D6
:101EC0000895E85DF54FE7CF80E1E89FF001112428
:101ED000E05AF54F8FB7F89494859487C5878FBFE4
:101EE000818180618183E6CF000000000000000056
:101EF0009C0127503109880F991F880F991F820F65
:101F0000931F0197F1F708956FB7F8942091342942
:101F10003091352940913629509137298091AA0A6C
:101F20009091AB0A7091A60A70FF08C02F5F3F4FD7
:101F30004F4F5F4F8091AA0A9091AB0A6FBFE92F74
:101F4000FF27BC01A4E076956795AA95E1F7E60F17
:101F5000F71FBC01B6E076956795BA95E1F7E61BE9
:101F6000F70B892F992786958695E81BF90BA8EE24
:101F7000B3E00E94955A6E0F7F1F811D911D089539
:101F80008F929F92AF92BF92CF92DF92EF92FF9289
:101F90004B015C010E94840F6B017C01A8EEB3E051
:101FA000A50194010E94955AC60ED71EE81EF91E7F
:101FB000C616D706E806F90618F40E94840FF8CF73
:101FC0000E94840F6C157D058E059F05C8F3FF9058
:101FD000EF90DF90CF90BF90AF909F908F9008953B
:101FE0002FB7F89460913429709135298091362962
:101FF000909137292FBF089521E0FC018485883016
:1020000008F020E0822F089580913428909135289F
:10201000891B990B0895DC01ED91FC910190F081F1
:10202000E02D0994EF92FF920F931F93CF93DF93CC
:102030008C017B01D0E0C0E0F701EC0FFD1F649143
:10204000662361F0D801ED91FC910190F081E02DC3
:10205000C8010995892B11F02196EECFCE01DF91B1
:10206000CF911F910F91FF90EF900895AF92BF9283
:10207000CF92DF92EF92FF920F931F93CF93DF9354
:102080006C017B018B01040F151FEB015E01AE1883
:10209000BF08C017D10759F06991D601ED91FC91A5
:1020A0000190F081E02DC6010995892B79F7C501D2
:1020B000DF91CF911F910F91FF90EF90DF90CF9024
:1020C000BF90AF900895FC01508D418D252F30E0D9
:1020D000842F90E0821B930B541710F0CF96089535
:1020E00001970895FC0196898789981761F0A7895F
:1020F000AE0FBF2FB11D5D968C9197899F5F9F7327
:10210000978B90E008958FEF9FEF0895FC019689DB
:102110008789981731F08789E80FF11D858D90E048
:1021200008958FEF9FEF0895FC0196892789892FE5
:1021300090E0805C9F4F821B91098F7399270895CF
:102140008CE49AE20E94941021E0892B09F420E0AB
:10215000822F0895CF93DF93EC01E881F981068007
:10216000F781E02D0995EC85FD8586818F73868347
:10217000EC85FD8585818F7585838F898E8B1D8A82
:10218000DF91CF910895AF92BF92CF92DF92EF92FD
:10219000FF920F931F93CF93DF93EC016A017B01B2
:1021A000A22E8D89882339F0E881F9810688F78984
:1021B000E02DCE0109950C8910E0BFB6F89460E0DF
:1021C00078E689E899E0A70196010E94545A6901CE
:1021D0007A018FEFC81AD80AE80AF80AF694E79449
:1021E000D794C794EC85FD8586818D7F8683EC85A9
:1021F000FD85868186831D8AA09125110A2E000CFB
:10220000BB0BA70196010E94A05A20E034E040E0F9
:1022100050E00E94765AEC85FD85C20ED31EE41E66
:10222000F51EC086D186EC85FD85A782EC85FD85EF
:102230008681806C8683EC85FD85858180688583B9
:102240009091E2058B89809589237801EE0CFF1C23
:10225000F701E00FF11FEC0FFD1F9089892B809390
:10226000E2058685893218F462E00E944E0E0E0D5A
:102270001F1DC00FD11F61E08F850E940C0F8F853D
:10228000893218F461E00E944E0EBFBEDF91CF91FB
:102290001F910F91FF90EF90DF90CF90BF90AF9084
:1022A0000895FC01613019F4648B81E00895148A6B
:1022B0006623D9F380E00895DC0154961C9254976C
:1022C00054968C9154978230A0F4282F30E0F90175
:1022D000EE0FFF1FE20FF31FEA0FFB1F9785961308
:1022E00003C09685941749F08F5F54968C9354974A
:1022F000E7CF54961C9280E0089581E00895CF9333
:10230000DF93FC01908D818DC485D585981306C01F
:102310008D818F7D8D83DF91CF910895A18DAE0F3B
:10232000BF2FB11DA35ABF4F2C91818D90E0019614
:102330008F739927818F80E48C83A485B58512964D
:102340002C93908D818D9813E6CFA485B585159635
:102350008C9115978F7D15968C93838D8823D9F258
:10236000848D80931301138ED6CFDC011C96ED91E2
:10237000FC910FB607FE03C0258125FD04C0248112
:1023800025FD0C947F110895EF92FF920F931F93F8
:10239000CF93DF93EC0181E08D8B988D898D98131D
:1023A0001CC0AC85BD8514968C91149785FF15C013
:1023B00012966C93AC85BD8580E414968C93EC8565
:1023C000FD8585818F7D858381E090E0DF91CF91D0
:1023D0001F910F91FF90EF9008958091110180FF60
:1023E00008C0809113018C8F8A8D8093130181E046
:1023F0008B8FF62E088D10E00F5F1F4F0F73112784
:10240000E02E898D8E1104C0CE010E94B511F9CF46
:10241000E88DEC0FFD2FF11DE35AFF4FF082088F7E
:10242000EC85FD8585818062CECF682F8CE49AE2B1
:102430000C94C411CF93DF93FC0125892223C9F0AA
:10244000EC018091110180FF08C080911301848FFD
:10245000828D8093130181E0838FEC85FD858581DA
:1024600085FD03C0848186FD04C0CE010E94B511A4
:10247000F4CFDF91CF91089580E090E0892B29F08F
:102480000E94A01081110E94000080E090E0892B42
:1024900049F080E090E0892B29F00E940000811132
:1024A0000E94000080E090E0892B49F080E090E0FD
:1024B000892B29F00E94000081110E94000080E019
:1024C00090E0892B49F080E090E0892B29F00E9470
:1024D000000081110C940000089581E008950F938D
:1024E00091E09093762810922F2860932D28709376
:1024F0002E2840932C2820932B28109230281092BD
:10250000312800932A28880F8093292893E024E01B
:1025100080912C28882331F0909377288091292866
:102520008E7F09C080912B28882341F02093772843
:102530008091292881608093A70808C080912C2869
:10254000811104C080912B28882331F380912F289A
:102550008823E1F380912F288330D1F280912B28BA
:10256000882321F0809131280F91089590912F2890
:1025700081E09130C9F780E0F7CFE0EAF8E091859B
:102580009066918792E09093772880932328109209
:102590002228089581E0809322281092232893E036
:1025A0009093AA089091AB0891FF0BC01092272836
:1025B000F0E0E0E009958093262885E08093772875
:1025C0000895109228288093252886E0F7CFE0917F
:1025D000352880913428E81730F4F0E0EA5CF74DB4
:1025E000808190E008958FEF9FEF089590913528B6
:1025F000809134282FEF3FEF981748F4E92FF0E04F
:10260000EA5CF74D208130E09F5F90933528C90147
:102610000895CF92DF92EF92FF920F931F93CF9383
:10262000DF937C018A01EB016B01C40ED51ECC1532
:10263000DD0551F06991D701ED91FC910190F08198
:10264000E02DC7010995F3CFC801DF91CF911F910C
:102650000F91FF90EF90DF90CF9008952091B828D0
:10266000203440F021E030E0FC012283338390E00D
:1026700080E008958091B928E82FF0E0E858F74D00
:1026800060838F5F8093B9288093B82881E090E0C1
:102690000895E0911E28F0911F28808190911D28B7
:1026A000892B80830895E0911E28F0911F28908146
:1026B00080911D288095892380830895AF92BF92D1
:1026C000CF92DF92EF92FF920F931F93CF93DF93FE
:1026D000CDB7DEB72897CDBFDEBF8C017B016A0185
:1026E000809180298333E1F45801A40EB51EA01611
:1026F000B10609F46FC00E94531380EF0E94280DA9
:10270000812F0E94280D802F0E94280D0F5F1F4FE0
:10271000F70181917F010E94280D0E944913E7CFA4
:102720005B01A40EB51E8433C1F40E9453131983B8
:102730000A838D2D80688B83CC8264E070E0CE01AB
:1027400001960E94320DAE14BF0409F441C0F70196
:1027500081917F010E94280DF6CF0E9453130F3FF5
:10276000110509F028F419820A8384E08B830CC0D8
:1027700017FD17C019820A8333E0169507953A951D
:10278000E1F7007E0C600B8386E0C816D10488F563
:10279000F701DE011496EA15FB0599F081918D93FE
:1027A000FACFC80126E0969587952A95E1F7807EB5
:1027B00019830A830115104C10F48461D7CF8C6102
:1027C000D5CFB6016D5F7F4FCE0101960E94320DCD
:1027D0000E944913C6012896CDBFDEBFDF91CF917D
:1027E0001F910F91FF90EF90DF90CF90BF90AF902F
:1027F000089563E070E0CE0101960E94320DF7016A
:1028000081917F010E94280DAE14BF04C1F7E0CF73
:10281000CF93DF931F92CDB7DEB7898341E050E0BD
:10282000BE016F5F7F4F90E080E00E945E130F90CB
:10283000DF91CF91089590E020918029233339F4DE
:102840000C96982F990F990F990F80E0089548964C
:10285000F8CFDA01E0912028F0E0FE2FEE27E60F16
:10286000F71F90E0982F8827A901BD018E0F9F1FA9
:102870000C945E13CF93DF9300D0CDB7DEB779838E
:102880006A8322E030E0AE014F5F5F4F60E170E0AD
:102890000E9429140F900F90DF91CF910895CF934C
:1028A000DF9300D0CDB7DEB779836A8322E030E0D2
:1028B000AE014F5F5F4F64E070E00E9429140F90FB
:1028C0000F90DF91CF910895CF93DF931F92CDB7F3
:1028D000DEB72091202830E0322F2227260F371F25
:1028E00090E0982F8827498341E050E0BE016F5F58
:1028F0007F4F820F931F0E945E130F90DF91CF9145
:102900000895CF93DF931F92CDB7DEB76983DC01C3
:10291000ED91FC910280F381E02D41E050E0BE0199
:102920006F5F7F4F09950F90DF91CF910895CF93FF
:10293000DF931F92CDB7DEB76983DC01ED91FC9187
:102940000280F381E02D41E050E0BE016F5F7F4FD8
:1029500009950F90DF91CF910895FC019485FB01BB
:102960008485981303C081E0983008F080E00895D2
:10297000CF93DF931F92CDB7DEB76983DC01ED9172
:10298000FC910280F381E02D41E050E0BE016F5FD9
:102990007F4F09950F90DF91CF91089544E050E06B
:1029A000BC018FE090E00C945E1344E050E0BC0169
:1029B00085E090E00C945E1344E050E0BC0181E0BF
:1029C00090E00C945E13FC01848595850895DC01EC
:1029D000ED91FC91028CF38DE02D099460E08DE087
:1029E0000E94A70E61E087E20E94A70E61E086E2E6
:1029F0000C94A70EFC01828181110CC0838181118E
:102A000009C08481811106C081E09581911103C0C4
:102A100080E0089581E00895FC01848995890895F6
:102A200026EC3BEFFC0120833183FB014089518977
:102A300062897389FC01428353836483758308959B
:102A400090912A29E92FF0E0EF57F64D80839F5FA0
:102A500090932A290895FC01DB0112968D919C9197
:102A600013978283938314964D915D916D917C9120
:102A70001797448355836683778318964D915D91AC
:102A80006D917C911B9740875187628773871C9655
:102A90008C911C9784871D968D919C918587968734
:102AA000CF010895FC01658776870895DC01ED91DB
:102AB000FC9102A0F3A1E02D099591E089270895EA
:102AC000862F089581E08627089508950895282F78
:102AD0002F71229530E0A901559547955595479559
:102AE0004373220F331F220F331F422B50E0282F36
:102AF00030E0B90175956795CA01959587958575FB
:102B0000440F551F4A7A482B842F869586958695C3
:102B1000220F331F220F331F2078962F9072292BFC
:102B20006074262B822B0895CF93DF93D62F0E94BB
:102B30006715C82F8D2F0E946715E0E4F4E024810B
:102B4000982F909592238C23892B8483DF91CF91AA
:102B5000089560E280E20E94941568E270E080E0EF
:102B600090E00E94C00F60EA80E00E94941568E245
:102B700070E080E090E00E94C00F60E880E80C9474
:102B800094154F925F926F927F929F92AF92BF92F5
:102B9000CF92DF92EF92FF920F931F93CF93DF9329
:102BA0005C01D62F8A010E94F00F2B013C016F5F60
:102BB0007F4F8F4F9F4FC0900F2BD090102BF12C39
:102BC000E12CF8011082C0E09924939464197509EE
:102BD000860997096C157D058E059F0578F580910E
:102BE000082B8130E1F1C11147C064E084E00E940C
:102BF00094158FE00E94E60EC4E0811142C064E0AB
:102C00000E949415DD2339F08EE00E94050F882381
:102C100011F0F8019082809168048095F50180831D
:102C200062E082E00E9494158FE00E94E60E8130FF
:102C300059F562E080E00E949415C1E08C2FDF918D
:102C4000CF911F910F91FF90EF90DF90CF90BF90A9
:102C5000AF909F907F906F905F904F90089582E12A
:102C60000E94050F811112C084E10E94050F882384
:102C700009F4B9CFC3E0E2CFC43009F4BACFC6300B
:102C800099F20E94F00FA2CFC6E0FBCFC2E0D6CFF0
:102C9000FC014089862F90E09C0153E0220F331FF6
:102CA0005A95E1F72870242B208B41899C01220F33
:102CB000331F220F331F2870242B218B42899C0144
:102CC000220F331F2870242B228B23896870622BDC
:102CD000638B44899C01359527952870242B248B80
:102CE00045899C0135952795359527952870242B86
:102CF000258B46899C0163E0359527956A95E1F718
:102D00002870242B268B278974E0959587957A95D2
:102D1000E1F78870822B878B0895CF93DF93D62FAE
:102D20000E946715C82F8D2F0E946715E0E4F4E01C
:102D30009081A82FA0959A232C2F2823922B908343
:102D400090893189428953892489D589B689E7894F
:102D500093FB992790F9632F70E0759567957595AA
:102D6000679562707727692B5870652B50E05595F1
:102D7000479544705527642B30E0220F331F207194
:102D80003327622B94E0D99F9001112420723327BE
:102D9000622B98E0B99F9001112420743327622B95
:102DA00090E1E99FF0011124E078FF276E2B6A2360
:102DB000C0958C23682B80E494E0DF91CF910C9434
:102DC0004816FC0180819181FC01FF2790FD06C01F
:102DD00080E094E1E82BF92B8081089580E093E175
:102DE000F9CF0F931F93CF93DF9300D0CDB7DEB70A
:102DF0008C0119821A82CE0101960E94E116F80117
:102E0000808381E090E089839A83CE0101960E94BD
:102E1000E116F8018183C8010F900F90DF91CF91E7
:102E20001F910F910895FC01FF2790FD12C080E0D3
:102E300094E1E82BF92B60838FB7F8949DE923E0A8
:102E400094BF209300108FBF8091021081FDFCCFB2
:102E5000089580E093E1EDCFBF92CF92DF92EF92A1
:102E6000FF920F931F93CF93DF9300D0CDB7DEB7C0
:102E70006C017C0102E010E0F701B1907F01098351
:102E80001A83CE0101960E94E116B81621F06B2D2F
:102E9000C8010E9413170F5F1F4F0E35110561F710
:102EA000C6010E94020E8C0119821A82CE0101967F
:102EB0000E94E116081729F0602F90E080E00E9440
:102EC000131781E090E089839A83CE0101960E94D6
:102ED000E116181781F0612F81E090E00F900F90BC
:102EE000DF91CF911F910F91FF90EF90DF90CF90E6
:102EF000BF900C9413170F900F90DF91CF911F91FB
:102F00000F91FF90EF90DF90CF90BF900895CF93F7
:102F1000DF93D0E0C0E06FEFCE010E94131721963F
:102F2000C11581E0D807B9F7DF91CF910895DC0191
:102F3000ED91FC910488F589E02D23E030E00994BF
:102F400090E080E0089524E0FC01218321E32083C8
:102F50000895DF92EF92FF920F931F93CF93DF9329
:102F600000D0CDB7DEB7FB01DC0156961D921C9256
:102F700057972281211109C02381211106C0248184
:102F8000211103C02581222359F14115510541F139
:102F90007A018F01FC01D08CCE0101960E94A3170B
:102FA00089819A810E94470DA8014E5F5F4F24E0FE
:102FB00030E06CE070E08D2D0E942914B7018D2D5A
:102FC0000E943A140E947B0C81E090E00F900F90D9
:102FD000DF91CF911F910F91FF90EF90DF900895B7
:102FE00080E0F3CFE0E6F4E0808110826FEF80E6CE
:102FF00094E00E9448166EE186E00E948D1666E01D
:1030000089EF0C9494158F929F92AF92BF92CF92BA
:10301000DF92EF92FF920F931F93CF93DF93D82FFE
:10302000162F0E94F00F4B015C016F5F7F4F8F4F97
:103030009F4FC0900F2BD090102BF12CE12CC0E0B3
:103040000FEFD095681979098A099B096C157D05E0
:103050008E059F0508F061C08091082B813029F50D
:1030600082E10E94050F8823A1F00E94F21788E0F8
:103070008093622BC2E08C2FDF91CF911F910F9133
:10308000FF90EF90DF90CF90BF90AF909F908F9088
:10309000089584E10E94050F882339F00E94F217F9
:1030A00088E08093622BC3E0E6CFC11117C081E1B5
:1030B0000E94E60E81112CC080E10E94E60EC7E05E
:1030C000813031F58091600400936004D0936404F2
:1030D0008091072B81110BC068E00CC0C73061F3F1
:1030E000C83081F3C93049F0CA3061F011C068E1DD
:1030F000112391F380E00E94941580E10E94E60E76
:10310000811109C081E10E94E60E813049F0CAE0D8
:103110000E94F00F97CFC9E0FBCFC13009F0ABCFD1
:103120008091072B811103C068E088E004C068E14A
:1031300088E11123C9F30E949415809160048FEFF8
:103140008093600480936404C1E095CF1092622B59
:103150006FEF80E00E948D16E0E6F4E0808110823F
:103160006FEF80E694E00C944816CF93C82FEEEFF3
:10317000E80FE83068F4F0E0E054F74E0C94E85AB9
:10318000D918E018F418F118041913191B191E198D
:1031900061EE81EA0E948D1661EA81EA0E9494152F
:1031A0006EE180E00E948D1660E280E00E9494153E
:1031B0003EC06EE180E00E948D1660E880E8F6CFA8
:1031C00080916004809360048FEF809364046EE1CB
:1031D00088E10E948D1668E188E10E94941560E8FC
:1031E000E4CF0E94F217E9CF8091600480936004DD
:1031F0008FEF809364046EE188E10E948D1668E190
:1032000088E10E949415D9CF6FEF80E00E948D165F
:1032100060E280E20E94941561EE80E40E948D16C7
:1032200060E480E4C3CF6EE180E00E948D16C0931D
:10323000622BCF9108950E94F217F9CF809160041C
:10324000809360048FEF809364046EE188E10E94B4
:103250008D1668E188E1AACF0E94A61888EC90E05C
:103260000E94740F81E08093082B86E00C94B518BF
:103270000E94A9150E94A61888EC90E00E94740F85
:1032800082E08093082B81E00E94B51861E080E025
:103290000E94941586E990E00E94740F61E081E03D
:1032A0000C949415CF93C82F8091622B833019F022
:1032B00083E00E94B51860E08C2F0E94031891E013
:1032C000813009F490E0892FCF9108958EE190E04C
:1032D0000E94740F8FE50E945219882311F081E03B
:1032E00008958FE30E9452198111F9CF1092642B37
:1032F00008950C9466191F93CF93DF938F3130F0AC
:10330000D1E08D2FDF91CF911F9108956036C0F3EA
:1033100091E8960F97FFF4CF142FC62FD82F8FE385
:103320000E9452198111ECCF8FE50E945219811130
:10333000E7CF123099F480E48D0F0E945219D82FF4
:103340008111DECFCF3F21F482E08093642BD9CF6F
:103350008C2F0E9452198111D3CFF6CF80E28D0FAE
:103360000E945219D82F8111CBCFCF3F11F481E0A9
:10337000ECCF8C2F0E9452198823C9F3C1CFAF9292
:10338000BF92CF92DF92EF92FF921F93CF93DF9382
:10339000EC017B0180910C2B813030F011E0833007
:1033A00020F010E0833009F012E08091082B823089
:1033B000C1F484E00E94B5186E01CE0CDF1C5E01E2
:1033C000A094B09481E0E81AF108CC16DD0679F1FA
:1033D00089919091072B992311F0112321F060E03E
:1033E00009C089E0E7CF61E095012C0F3D1F2E1544
:1033F0003F05A9F70E940318813039F38091082B0B
:10340000823099F4DF91CF911F91FF90EF90DF9080
:10341000CF90BF90AF900C94B51860E08DE00E9403
:1034200003186091072B8AE00FC087E0EBCF1123D0
:1034300029F380910C2B8230A1F38330F9F2813093
:1034400061F76091072B8DE00E940318D7CF8F9210
:103450009F92AF92BF92CF92DF92EF92FF920F9323
:103460001F93CF93DF9300D000D0CDB7DEB77C01A0
:10347000162FD42EC22E19821A821B829091422BB3
:10348000092F07701C821092632B8091072B8111EA
:103490004BC0611104C011E0973009F010E0809139
:1034A000082B823009F042C085E00E94B51884E103
:1034B0000E94050F811141C0A02EB12C8091632B79
:1034C0008111A5C084E10E94050F882309F453C02F
:1034D00012E08C81882349F08091062B882329F003
:1034E0006091112BC7010E940B10173039F08091A9
:1034F000082B823009F091C00E94B5188091632B8F
:1035000081111092632B812F2496CDBFDEBFDF91F6
:10351000CF911F910F91FF90EF90DF90CF90BF90D0
:10352000AF909F908F900895182FB9CF0E94F217F7
:1035300088E08093622B11E0BACF0E94F00F2091B7
:103540000F2B3091102B4B015C01820E931EA11C9E
:10355000B11C84E10E94E60E8111AECF0E94F00FF3
:1035600086169706A806B90608F4A6CF84E190E06F
:103570000E94740FEECFAE014C5F5F4F612FCE0102
:1035800001960E94C115823009F443C0833009F4CA
:103590009FCF813009F03FC06981C7010E940B10A5
:1035A000112329F08C81882301F114E092CF8981C5
:1035B000DD2021F08C1119C015E08BCF073018F5F4
:1035C000F501EB51F54E0C94E85A031B001BEF1A62
:1035D000F51AEC1AF31AFA1A8D3039F48A818A3006
:1035E00021F416E076CF8330E1F38A818B838981E1
:1035F0008A8364CF8330C9F78A818A30B1F78B819F
:103600008D3099F7EECF8A3081F78A81F9CF11E0BA
:1036100060CF13E05ECF18E05CCF87E06DCF20E095
:1036200040E060E089E69BE20C94271A109227297B
:103630008091622B883029F487E00E94B51881E0E0
:10364000089580E008958091622B893029F487E005
:103650000E94B51881E0089580E00895FB01019073
:103660000020E9F73197AF01461B570BDC01ED91C4
:10367000FC910280F381E02D09948F929F92AF928A
:10368000BF92EF92FF920F931F93CF93DF93CDB72B
:10369000DEB7A197CDBFDEBF7C01FA01CB0119A235
:1036A000223008F42AE08E010F5D1F4F822E912CEC
:1036B000B12CA12CBF01A50194010E94545AF9011B
:1036C000CA016A30F4F4605DD8016E938D01232B3A
:1036D000242B252B79F790E080E0109721F0BD0195
:1036E000C7010E942E1BA196CDBFDEBFDF91CF91F7
:1036F0001F910F91FF90EF90BF90AF909F908F9090
:103700000895695CE1CFCF92DF92EF92FF920F9321
:103710001F93CF93DF936B01770FEE08FF08F7FE3F
:103720001BC0EC016DE20E940B108C014427552751
:10373000BA014C195D096E097F092AE0CE010E9489
:103740003D1B800F911FDF91CF911F910F91FF9033
:10375000EF90DF90CF9008952AE0B701A601DF91A6
:10376000CF911F910F91FF90EF90DF90CF900C942D
:103770003D1BCF93DF9300D0CDB7DEB761E674E198
:103780008CE49AE20E9412108091A82B9091A92BB0
:10379000009711F48EEA9BE2BE016F5F7F4F681BBA
:1037A000790B8CE49AE20E94831B0F900F90DF91BB
:1037B000CF910895462F50E070E060E02AE00C942D
:1037C0003D1B8F929F92AF92BF92CF92DF92EF926A
:1037D000FF920F931F93CF93DF937C018B014C01DA
:1037E00082E0880E911C5701E5E0AE0EB11CD0E0DE
:1037F000C0E0F40161914F01C8010E94DA1B6C0125
:103800006EE2C8010E940B108C0D9D1DC80FD91FC0
:103810008A149B0471F7F7016581C8010E94DA1BC5
:103820008C0F9D1FDF91CF911F910F91FF90EF9013
:10383000DF90CF90BF90AF909F908F9008956AEDEA
:103840007BEF0C942E1B0F931F93CF93DF93EC0110
:103850000E94DA1B8C01CE010E941F1C800F911F59
:10386000DF91CF911F910F9108950F931F93CF93E5
:10387000DF93EC01AB0170E060E02AE00E943D1BA9
:103880008C01CE010E941F1C800F911FDF91CF91F0
:103890001F910F9108950F931F93CF93DF93EC0126
:1038A0000E94831B8C01CE010E941F1C800F911F60
:1038B000DF91CF911F910F91089583E10E94050F31
:1038C000682F70E089E69BE20C944B1C0F931F93CA
:1038D000CF93DF93EC01CB01BE010E94E11B8C0171
:1038E000CE010E941F1C800F911FDF91CF911F916D
:1038F0000F9108950F931F93CF93DF93EC010E94D4
:103900002E1B8C01CE010E941F1C800F911FDF9186
:10391000CF911F910F9108950F931F93CF93DF9332
:10392000EC01FB014481558160817181E881F9815D
:103930000280F381E02D09958C01CE010E941F1CAD
:10394000800F911FDF91CF911F910F9108950F93D9
:103950001F93CF93DF93EC010E9412108C01CE01D4
:103960000E941F1C800F911FDF91CF911F910F911B
:10397000089563E773E189E69BE20C94A71C8FE549
:103980000E945219882351F08091022A882359F00D
:1039900060E673E189E69BE20C94A71C1092642B0D
:1039A00082E00C94B51808958FE30E945219882381
:1039B00051F08091022A882359F06DE473E189E681
:1039C0009BE20C94A71C1092642B82E00C94B51817
:1039D0000895CF9382E00E94B51884E190E00E94A0
:1039E000740F80916004809360048FEF809364046F
:1039F0006EE188E10E948D1668E188E10E949415CD
:103A000060E980E00E9494150E94F21784E190E042
:103A10000E94740FC091680482E00E94B5186C2F58
:103A2000609589E69BE20E94231C8091022A8823EC
:103A300039F069EE70E189E69BE2CF910C94A71C06
:103A4000CF91089584E10E945219882351F080910A
:103A5000022A882349F06AEB70E189E69BE20C9424
:103A6000A71C82E00C94B518089586E09BE20E94A2
:103A70002C178091022A882331F06FE976E089E6DD
:103A80009BE20C94A71C0895CF92DF92EF92FF92D5
:103A90000E94F00F6B017C0120EDC20E27E0D21EC8
:103AA000E11CF11C88EDA89584BF8091000186601F
:103AB000809300018091010181FDFCCF0E94F00FF5
:103AC0006C157D058E059F05C8F38091022A882319
:103AD00051F064EF75E089E69BE2FF90EF90DF9094
:103AE000CF900C94A71CFF90EF90DF90CF9008959B
:103AF0008091082B8230B1F461E080E00E9494153F
:103B000086E990E00E94740F61E081E00E949415C4
:103B10008091022A882331F068E975E089E69BE20A
:103B20000C94A71C089541E060910B2B80910A2B07
:103B30000E947B19882351F08091022A882391F0FA
:103B40006FE375E089E69BE20C94A71C84E00E9479
:103B500052198111F1CF0E9479198111EDCF82E0C4
:103B60000C94B518089563E373E0823031F065E496
:103B700073E0833011F462E273E089E69BE20C9417
:103B8000A71C0F931F93CF938C01C091582BC29504
:103B9000C695C77009F4C1E089E69BE20E941F1C2C
:103BA000B80189E69BE20E941210C13029F065E25B
:103BB00089E69BE20E940B10C15091F789E69BE2D7
:103BC000CF911F910F910C941F1C6115710511F07D
:103BD0000C942E1B90E080E008958091022A91E0E1
:103BE00089278093022A6DED7BEF89E69BE20E9494
:103BF000E51D8091022A6BE17CEF882311F06FE0D4
:103C00007CEF89E69BE20C947A1C67EF7CEF89E6F7
:103C10009BE20C94E51DDC01FC0101900020E9F71A
:103C200031979E2F9A1B2A2FFD018E2F821B8917F9
:103C300030F4819180538A30C0F380E0089581E0B0
:103C400008950C94DC54CF93DF93CDB7DEB7C05406
:103C5000D109CDBFDEBF6CE978E18CE49AE20E9425
:103C6000A71C6091042B7091052B40E450E0CE011D
:103C700001960E944957BE016F5F7F4F8CE49AE224
:103C80000E94E51D6AE978E18CE49AE20E94121034
:103C9000C05CDF4FCDBFDEBFDF91CF9108950F93A2
:103CA0001F93CF93DF93CDB7DEB7C054D109CDBFFB
:103CB000DEBF64E67CEF8CE49AE20E947A1C64E644
:103CC0007CEF8CE49AE20E947A1C8091032B10E036
:103CD00005E0811115C068E878E18CE49AE20E9461
:103CE000A71C65E578E18CE49AE20E94A71CC05C01
:103CF000DF4FCDBFDEBFDF91CF911F910F910895B0
:103D00008091032B181798F7E091012BF091022B6B
:103D1000109FE00DF11D11246081718140E450E09D
:103D2000CE0101960E944957BE016F5F7F4F8CE420
:103D30009AE20E947A1C1F5FE3CF0E944F1E0C94F0
:103D4000231EAF92BF92CF92DF92EF92FF920F931A
:103D50001F93CF93DF9300D000D0CDB7DEB78C0197
:103D60006B017A01809180298333E9F45B0168015A
:103D7000C40ED51EC016D10691F10E9453138FE0D8
:103D80000E94280D812F0E94280D802F0E94280D4F
:103D90000F5F1F4F80E00E94280DF50181935F01A6
:103DA0000E944913E7CF843349F50E9453131983C6
:103DB0000A838F2D8F778B83EC8264E070E0CE01D5
:103DC00001960E94320DA70170E060E0C6010E94DA
:103DD000FA5BB701C6010E94320D0E944913C70168
:103DE0002496CDBFDEBFDF91CF911F910F91FF9041
:103DF000EF90DF90CF90BF90AF9008950E94531343
:103E00000F3F110509F030F419820A831B8263E029
:103E100070E0D5CF17FD0BC019820A8333E01695E9
:103E200007953A95E1F7007E08600B83F0CFC80153
:103E300026E0969587952A95E1F7807E19830A8377
:103E40000115104C18F480618B83E1CF8861FCCFA1
:103E50001F93CF93DF9300D0CDB7DEB7182FCE01DD
:103E600001960E94A31789819A810E94470D812F94
:103E70000E941B1427E0129FF0011124E85CF64D0C
:103E800022813381377041E050E0BE016F5F7F4F88
:103E9000820F931F0E94A11E0E947B0C89810F90AC
:103EA0000F90DF91CF911F910895FC01808D883094
:103EB00040F4218D328D232B21F00E94281F90E0A9
:103EC00008958FEF9FEF0895CF93DF93FC01248532
:103ED000283028F08FEF9FEFDF91CF910895EC010C
:103EE0000190F081E02D0084F185E02D0995892B6A
:103EF00089F38C850E94281F90E0EECFCF93DF934B
:103F00001F92CDB7DEB741E050E0BE016F5F7F4F3B
:103F10000E94A11E89810F90DF91CF91089590E0BA
:103F200080E00C947E1FCF93DF93C4E1D0E00E9429
:103F30008F1F882361F061E070E080E090E00E94D4
:103F4000C00F2197A1F780E0DF91CF91089581E024
:103F5000FBCF1F93CF93DF9300D01F92CDB7DEB777
:103F600080912128811139C160E372E080E090E006
:103F70000E94C00F80910A2A811117C010920B2A4B
:103F800010920C2A10920D2A10920E2A10920F2ACB
:103F90001092102A1092112A1092122A1092132AAB
:103FA0001092142A81E080930A2A8091E3058C7F85
:103FB0009091092A892B8093E30591118BC061E0D0
:103FC00084E00E944E0E61E086E00E944E0E8091D9
:103FD000C10884608093C1088091C0088162809389
:103FE000C0089091442A8091452A9093C0088093FC
:103FF000C10880910028893208F07FC0E82FF0E0E6
:10400000EA5FF5402081263008F077C090E2299FD2
:10401000900111243C5F2C5F3F4F20931E2830936A
:104020001F289FEF893228F4E82FF0E0E15DF5408A
:10403000908190931D28893218F461E00E944E0E01
:104040000E944913CE0101960E94A31789819A818B
:104050000E94470D84E38093802980E80E94081421
:104060000E94931F882309F44BC088E00E94081423
:104070000E948F1F883009F043C080E10E9408141D
:104080000E948F1F8031E1F580E00E9408140E9499
:104090008F1F182F811134C08FE190E00E947E1F86
:1040A000833071F580E48093202842E06EE170E077
:1040B000812F0E94641442E06FE170E0812F0E9422
:1040C00064141F5F183089F70E947B0C81E0809395
:1040D00021287CC0913039F461E08EE00E944E0EC0
:1040E00061E080E172CF923009F071CF61E08EE142
:1040F0000E944E0E61E080E268CF30E020E08BCF7E
:1041000087E38093802980E80E9408140E94931F0F
:104110008823F9F088E00E9408140E948F1F8830DD
:10412000C1F480E10E9408140E948F1F182F803173
:1041300081F480E00E9408140E948F1F811109C041
:1041400089E390E00E947E1F843019F410932028A8
:10415000BBCF83E38093802980E80E9408140E94EB
:10416000931F882371F180E10E9408140E948F1F21
:10417000803139F582E10E9408140E948F1F82313C
:1041800001F580E00E9408140E948F1F811119C060
:1041900084E08093202815E51B8341E050E0BE01B8
:1041A0006D5F7F4F8BE190E00E945E13198341E0C9
:1041B00050E0BE016F5F7F4F8AE190E00E945E1386
:1041C00083CF109280290E947B0C80E02396CDBF84
:1041D000DEBFDF91CF911F91089581E0F7CFEF927D
:1041E000FF921F93CF93DF93CDB7DEB7C454D109AD
:1041F000CDBFDEBF7C01FB0182819381A481B581AB
:1042000023968CAF9DAFAEAFBFAF239711E023963F
:104210001FAF239723964CAD5DAD6EAD7FAD239759
:1042200049AF5AAF6BAF7CAF8DA79EA7AFA7B8AB16
:1042300018AB4DA55EA56FA578A94B8F5C8F6D8FD0
:104240007E8F1CAF49AD5AAD6BAD7CAD49A35AA36F
:104250006BA37CA326EC3BEF29833A834FEF4B8380
:104260004C834D831E822F8338871E8F4B8D5C8D30
:104270006D8D7E8D49875A876B877C871CA349A1EA
:104280005AA16BA17CA14F87588B698B7A8B2B8BA2
:104290003C8B8D8B9E8BAF8BB88F0E94A91F882380
:1042A00069F1CE018D5B9F4F0E94A31725968EADBD
:1042B0009FAD25970E94470D46E050E0B70189E089
:1042C00090E00E945E13CE0145960E94CE14CE016E
:1042D00009960E94DC14CE0103960E94D5140E9418
:1042E0007B0C1A8B8F859889A989BA898093F72AC4
:1042F0009093F82AA093F92AB093FA2ACC5BDF4F67
:10430000CDBFDEBFDF91CF911F91FF90EF90089559
:104310002091202830E0322F2227620F731F90E077
:10432000982F8827860F971F0C947E1FCF93C82F36
:10433000462F61E070E00E94641461E070E08C2F11
:104340000E9488218111F9CFCF9108951F93CF93B7
:10435000DF9300D0CDB7DEB7182FCE0101960E94B3
:10436000A31789819A810E94470D68E070E0812F30
:104370000E9496210E947B0C0F900F90DF91CF91AD
:104380001F9108951F93CF93DF9300D0CDB7DEB771
:10439000182FCE0101960E94A31789819A810E944D
:1043A000470D60E170E0812F0E9496210E947B0CF6
:1043B0000F900F90DF91CF911F910895CF93DF93CE
:1043C000EC01888D883020F40E94C22188E0888F1B
:1043D000DF91CF91089563E070E00C9488211F93E2
:1043E000CF93DF9300D0CDB7DEB7182FCE01019663
:1043F0000E94A31789819A810E94470D812F0E94F4
:10440000EB21182F0E947B0C812F0F900F90DF91D2
:10441000CF911F910895EF92FF920F931F93CF9327
:10442000DF937C0180918029D4E0833309F0D8E0C8
:1044300000E719E2C0E0F801219131918F01F70105
:10444000848195812817390729F0CF5FDC13F3CFDA
:1044500080E006C08C2F0E94EF218431B1F781E00B
:10446000DF91CF911F910F91FF90EF900895CF931F
:10447000DF93EC018C858830D0F40E94EF218431E9
:1044800089F0882379F0883169F021E08C3159F482
:10449000E881F9810084F185E02DCE01099521E0C4
:1044A000892B09F420E0822FDF91CF91089580E0DD
:1044B000FBCFCF92DF92EF92FF92CF93DF93EC018D
:1044C0008C85883068F40E94A6210E94F00F6B0151
:1044D0007C018C850E94EF21811109C088E08C87C6
:1044E000DF91CF91FF90EF90DF90CF90089561E042
:1044F00070E080E090E00E94C00F0E94F00FAB01DE
:10450000BC014C195D096E097F098D859E85B0E05F
:10451000A0E0481759076A077B07D8F28C850E94EC
:10452000C221DCCF1F93CF93DF9300D0CDB7DEB78E
:10453000FC01108DCE0101960E94A31789819A81FA
:104540000E94470D60E270E0812F0E94962162E098
:1045500070E0812F0E94882184FD22C062E070E01B
:10456000812F0E94882183FF10C048E162E070E043
:10457000812F0E9464140E947B0C80E090E00F90D9
:104580000F90DF91CF911F9108950E947B0CCE0177
:1045900001960E94A31789819A810E94470DD7CF67
:1045A00040E162E070E0812F0E9464140E947B0C65
:1045B00081E0E4CFDA01E0912028F0E0FE2FEE2741
:1045C000E60FF71F90E0982F8827A901BD018E0FF5
:1045D0009F1F0C94A11E8F929F92AF92BF92CF9279
:1045E000DF92EF92FF920F931F93CF93DF93CDB79C
:1045F000DEB76097CDBFDEBF7C0190918029992303
:1046000071F108E0933309F404E05B01CE010196F7
:104610000E94A31789819A810E94470D9E012F5FF6
:104620003F4F6901490110E0812F0E94EB21F40105
:1046300081934F018823D9F01F5F0113F5CF00E06C
:10464000F60181916F018D3161F0883151F08A510D
:10465000823038F00F5F1013F3CF0E947B0C18E00C
:104660008AC060E170E0802F0E949621102FC12E39
:10467000D12CF601EE0FFF1FE059F64D108211828A
:104680008AEF90E00E94740F42E870E060E0812FB2
:104690000E9464144FEF62E070E0812F0E94641466
:1046A000B501A114B10491F48091032890910428DC
:1046B00001968115F0EC9F0708F46EC080930328E3
:1046C000909304286091032870910428812F0E9400
:1046D0004F1486E0E4E6F9EFDE01199601900D92A1
:1046E0008A95E1F7F70183818F778C8784818D87A5
:1046F00085818E87A7014E5F5F4F24E030E06CE03C
:1047000070E0812F0E942914B501812F0E943A1474
:1047100026E030E0AE01475F5F4F66E070E0812F3A
:104720000E94291461E070E0812F0E94962127E009
:104730002C9DC0012D9D900D11249C01285C364DAF
:104740007901F9011082118222E030E0AE01415F6F
:104750005F4F68E270E0812F0E94DA228F8598898E
:10476000982789279827F7018283938316821482DA
:1047700015820E947B0C812F6096CDBFDEBFDF913A
:10478000CF911F910F91FF90EF90DF90CF90BF904E
:10479000AF909F908F90089580E090EC8FCFCF9254
:1047A000DF92EF92FF920F931F93CF93DF93CDB7DA
:1047B000DEB72697CDBFDEBF8C016B017A01FC010D
:1047C000808D883010F40E94C22186EC9BEF898393
:1047D0009A83F60182819381A481B5818B839C8326
:1047E000AD83BE83B701CE0101960E94EB22F80192
:1047F000808F883088F4E486F586118E128E81E0F1
:104800002696CDBFDEBFDF91CF911F910F91FF9014
:10481000EF90DF90CF90089580E0F2CF7F928F925B
:104820009F92AF92BF92CF92DF92EF92FF920F933F
:104830001F93CF93DF9300D0CDB7DEB7782E8B01D7
:104840004A01590122E030E0AE014F5F5F4F64E260
:1048500070E00E94DA22E980FA80FE24EF24FE2430
:10486000E00EF11E9701377040918029072D10E06E
:10487000433309F042C0085F1F4F102F0027110F6C
:10488000110F110FC901800F911F4733C9F1A90101
:104890004A0D5B1D4130584098F160E078E06B01B3
:1048A000C21AD30AA601B4010E945E13A5014C19D5
:1048B0005D09B4016C0D7D1DC8010E945E13EA0CF8
:1048C000FB1CF982EA8222E030E0AE014F5F5F4FCD
:1048D00064E270E0872D0E9429140F900F90DF9101
:1048E000CF911F910F91FF90EF90DF90CF90BF90ED
:1048F000AF909F908F907F900895005F1F4FBDCF26
:10490000A501B401DACFEF92FF921F93CF93DF930B
:1049100000D0CDB7DEB7182F22E030E0AE014F5FF8
:104920005F4F60E270E00E94DA22E980FA80FE24A4
:10493000EF24FE2422E030E0AE014F5F5F4F60E2E3
:1049400070E0812F0E94DA2289819A819827892735
:104950009827E816F90689F487E0189FF0011124DA
:10496000E85CF64DE482F582C7010F900F90DF916D
:10497000CF911F91FF90EF9008957C01DBCFFF92C4
:104980000F931F93CF93DF9300D0CDB7DEB7F82EF0
:10499000CE0101960E94A31789819A810E94470D3A
:1049A0008F2D0E9483248C018F2D0E94EB21F82EE5
:1049B0000E947B0C87E1F81629F08CE1F81611F0C3
:1049C00010E000E0C8010F900F90DF91CF911F9190
:1049D0000F91FF900895CF93DF93EC018C85883081
:1049E00060F40E94EF21873111F08C3131F48C8515
:1049F0000E94BF248115984088F3DF91CF910895DC
:104A0000FC0124A1283018F448960C94EB24089556
:104A1000FC018485883010F40C94BF2490E080E081
:104A20000895AF92BF92CF92DF92EF92FF920F93D1
:104A30001F93CF93DF9300D0CDB7DEB7F82E6B0175
:104A40008A014130584010F000E018E0CE01019694
:104A50000E94A31789819A810E94470D8F2D0E9481
:104A600083245C018F2D0E94EB21E82E0E947B0C99
:104A700087E1E81619F08CE1E81235C0A016B106FE
:104A800028F3CE0101960E94A31789819A810E9482
:104A9000470D9801A60170E060E08F2D0E940E2462
:104AA00060E270E08F2D0E94962162E070E08F2D11
:104AB0000E94882184FD25C08F2D0E94EB21811149
:104AC00015C00E947B0C10E000E0C8010F900F9011
:104AD000DF91CF911F910F91FF90EF90DF90CF90DA
:104AE000BF90AF90089510E000E0CBCF0E947B0C08
:104AF000CE0101960E94A31789819A810E94470DD9
:104B0000D4CF40E162E070E08F2D0E9464140E94D7
:104B10007B0CDBCF0F931F93CF93DF938C01EA01C4
:104B2000FC018485883048F40E941125892B39F4D2
:104B300081E090E0F80182839383D0E0C0E0CE0171
:104B4000DF91CF911F910F9108957F928F929F9245
:104B5000AF92BF92CF92DF92EF92FF920F931F938B
:104B6000CF93DF9300D0CDB7DEB77C014B01742E1D
:104B7000C52EFC01A688B788D08CCE0101960E9474
:104B8000A31789819A810E94470D8D2D0E9483244D
:104B9000072D1C2D8017910708F48C019801A401A2
:104BA000B5018D2D0E940E240E947B0CF701868991
:104BB0009789800F911F868B978BC8010F900F905C
:104BC000DF91CF911F910F91FF90EF90DF90CF90E9
:104BD000BF90AF909F908F907F900895FF920F931A
:104BE0001F93CF93DF9300D0CDB7DEB7F82E22E02E
:104BF00030E0AE014F5F5F4F66E270E00E94DA2264
:104C000009811A8110270127102722E030E0AE0128
:104C10004F5F5F4F66E270E08F2D0E94DA2289813C
:104C20009A819827892798270817190749F4C801F6
:104C30000F900F90DF91CF911F910F91FF900895EA
:104C40008C01E3CFEF92FF920F931F93CF93DF93EB
:104C500000D0CDB7DEB7182F87E0189F9001112440
:104C6000F901E85CF64D7F01808191810097B1F4F4
:104C7000CE0101960E94A31789819A810E94470D57
:104C8000812F0E94EE258C010E947B0CF70186810A
:104C90009801281B3109C901208331830F900F909F
:104CA000DF91CF911F910F91FF90EF9008959F9208
:104CB000AF92BF92CF92DF92EF92FF920F931F932A
:104CC000CF93DF93EC017B0180918029811121C07A
:104CD0001A821B8288EE93E0A0E0B0E08C839D8373
:104CE000AE83BF8384E99BEF8883998388E08C87B8
:104CF00088EE93E08D879E87CE01DF91CF911F9143
:104D00000F91FF90EF90DF90CF90BF90AF909F906A
:104D1000089534E0932E833311F028E0922E80E73B
:104D2000C82E89E2D82E10E098E0B92EA12CD60129
:104D30002D913D916D01F7018481958128173907E7
:104D400091F4812F0E94EF21082F873111F08C31CF
:104D500039F5812F0E942226892B59F50C3119F43F
:104D6000812F0E94A6211F5F9112E1CFA11008C0E0
:104D7000D701ED91FC910084F185E02DC7010995E3
:104D80001A821B8288EE93E0A0E0B0E08C839D83C2
:104D9000AE83BF8384E99BEF88839983BC86A8CFC9
:104DA000843149F08111DFCFF601329710821182F0
:104DB000DACFB12ED8CFAA24A394D5CF8F929F92C9
:104DC000AF92BF92CF92DF92EF92FF920F931F9319
:104DD000CF93DF93CDB7DEB72F97CDBFDEBF5C019A
:104DE0004B017A01809180298823B1F104E083335B
:104DF00009F008E0B501CE0101960E94572680E730
:104E0000C82E89E2D82E10E0F601219131916F0170
:104E1000F501848195812817390751F4812F0E946B
:104E2000EF21873129F4A701B401812F0E941125B8
:104E30001F5F0113E9CFC7012F96CDBFDEBFDF9102
:104E4000CF911F910F91FF90EF90DF90CF90BF9087
:104E5000AF909F908F900895F12CE12CECCFEF92C2
:104E6000FF920F931F93CF93DF93CDB7DEB72F97AA
:104E7000CDBFDEBF8C017C0188E1E80EF11CF8019A
:104E800084A1883030F5C7010E94372281111DC0EE
:104E9000C7010E9459221B821C8288EE93E0A0E089
:104EA000B0E08D839E83AF83B88784E99BEF8983CD
:104EB0009A8388E08D8788EE93E08E879F87BE0176
:104EC0006F5F7F4FC7010E942B15F80184A18830C6
:104ED00068F0F80166897789CE0101960E9457260D
:104EE000BE016F5F7F4FC7010E942B15F80184A19F
:104EF000883038F40E94F00FF80165A776A787A7DD
:104F000090AB2F96CDBFDEBFDF91CF911F910F9158
:104F1000FF90EF900895CF93DF93EC010E942F272D
:104F2000CE0148962CA1283020F4DF91CF910C942B
:104F3000641F8FEF9FEFDF91CF910895FC0184856F
:104F4000883010F40C94222690E080E00895EF92CF
:104F5000FF920F931F93CF93DF93CDB7DEB72F97B9
:104F6000CDBFDEBFFC0126893789232B61F490E099
:104F700080E02F96CDBFDEBFDF91CF911F910F91C3
:104F8000FF90EF9008958C010E942F277801F8E19F
:104F9000EF0EF11CF80184A1883060F066897789F2
:104FA000CE0101960E945726BE016F5F7F4FC70159
:104FB0000E942B15F80184A18830C8F6C7010E9411
:104FC0009E27D7CF4F925F927F928F929F92AF9200
:104FD000BF92CF92DF92EF92FF920F931F93CF93E6
:104FE000DF9300D0CDB7DEB7782E6B014A01A82E33
:104FF000B12C27E0829FC0011124FC01E85CF64D32
:105000007F0100811181CE0101960E94A317898141
:105010009A810E94470D0815190554F4872D0E94A6
:10502000EE25F70126818C01021B110900831183F3
:105030000115110529F5872D0E94EB21843159F0C6
:10504000882349F001E010E08C3111F410E000E019
:105050001195019511090E947B0CC8010F900F90CA
:10506000DF91CF911F910F91FF90EF90DF90CF9044
:10507000BF90AF909F908F907F905F904F900895DA
:10508000801691060CF4840187E08A9DF0018B9DC7
:10509000F00D1124E85CF64DE280F380C114D104D8
:1050A00051F12701F7E05F22872D0E941B14840D28
:1050B000951D20918029273309F453C09801240DB0
:1050C000351D2130384008F44CC020E038E049015B
:1050D00084189508A401B6010E94A11E2601480C5F
:1050E000591C6801C818D908872D0E941B14A601F5
:1050F000B2010E94A11EE00EF11E87E08A9DF00120
:105100008B9DF00D1124E85CF64DE282F382208144
:105110003181201B310B208331838681800F912FB9
:10512000911D8A3F910510F4232BF1F487E08A9DAD
:10513000F0018B9DF00D1124E85CF64D1682F9828A
:10514000EA8222E030E0AE014F5F5F4F68E270E03C
:10515000872D0E94291460E470E0872D0E9496211B
:105160007ACFA801B601C5CF868375CFCF93DF93E1
:10517000FC01218D328D2115310529F48FEF9FEF30
:10518000DF91CF910895EC01808D4217530708F00D
:10519000A9010E94E2271816190684F7298D3A8D75
:1051A000281B390B298F3A8FEBCF0F931F93CF9387
:1051B000DF931F92CDB7DEB7FC01218D328D232BFB
:1051C00041F48FEF9FEF0F90DF91CF911F910F91DF
:1051D00008958C0141E050E0BE016F5F7F4FFC01FC
:1051E000808D0E94E227181619065CF7F801818D60
:1051F000928D0197818F928F898190E0E4CFCF9338
:10520000DF931F92CDB7DEB741E050E0BE016F5F84
:105210007F4FFC0184850E94E2271816190634F49A
:10522000898190E00F90DF91CF9108958FEF9FEFEC
:10523000F9CFCF93DF93EC010E942F27CE01489640
:105240002CA1283020F4DF91CF910C94FF288FEF10
:105250009FEFDF91CF910895FC018485883010F491
:105260000C94E22790E080E008958F929F92BF9285
:10527000CF92DF92EF92FF920F931F93CF93DF9322
:10528000CDB7DEB72A97CDBFDEBF90918029992395
:1052900079F108E0933309F404E06B01B82ECE01F4
:1052A00001960E94A31789819A810E94470D9E0151
:1052B0002F5F3F4F7901490110E0812F0E94EB21C0
:1052C000F40181934F018823D9F01F5F0113F5CFBB
:1052D00000E0F70191917F019D3161F0983151F02B
:1052E0009A51923038F00F5F1013F3CF0E947B0C6D
:1052F00018E060C060E170E0802F0E949621102FBE
:10530000E12EF12CF701EE0FFF1FE059F64D108250
:1053100011828AEF90E00E94740F4B2D70E060E0E4
:10532000812F0E9464144FEF62E070E0812F0E9491
:105330006414B601CD2891F480910328909104283B
:1053400001968115F0EC9F0708F444C08093032870
:10535000909304286091032870910428812F0E9463
:105360004F1461E070E0812F0E94962127E02E9D6E
:10537000C0012F9D900D11249C01285C364D7901B0
:10538000F9011082118222E030E0AE01475F5F4FE9
:1053900068E270E0812F0E94DA2289859A85982739
:1053A00089279827F70182839383168214821582B6
:1053B0000E947B0C812F2A96CDBFDEBFDF91CF915B
:1053C0001F910F91FF90EF90DF90CF90BF909F9033
:1053D0008F90089580E090ECB9CF0F931F93CF93F7
:1053E000DF93EC018B01888D883010F40E94C2217C
:1053F000B80182E00E943529888F883050F40C87EC
:105400001D87198E1A8E81E0DF91CF911F910F9128
:10541000089580E0F9CFEF92FF921F93CF93DF932F
:1054200000D0CDB7DEB77C01FC016481758181E2DB
:105430000E943529182F883090F4CE0101960E94E1
:10544000A31789819A810E94470D812F0E94EB2129
:10545000833169F00E947B0C812F0E94A6210F905E
:105460000F90DF91CF911F91FF90EF90089562E030
:1054700070E0812F0E9496210E947B0CF7018481AD
:105480009581E12FF0E0EE0FFF1FE059F64D80838C
:105490009183E5CFAF92BF92CF92DF92EF92FF92CE
:1054A0000F931F93CF93DF9300D0CDB7DEB78C015E
:1054B0006B015A01FC018485883058F40E94EF2169
:1054C000882321F0F80184850E94A62188E0F80154
:1054D0008487F60182819381A481B5810097A1051B
:1054E000B10579F490E080E00F900F90DF91CF91BB
:1054F0001F910F91FF90EF90DF90CF90BF90AF90F2
:1055000008958F3F9F4FAF4FBF4F61F370E060E052
:1055100081E20E943529F82EF8018487F7E0F81718
:1055200008F3CE0101960E94A31789819A810E94F7
:10553000470DA6014E5F5F4F24E030E06CE070E065
:105540008F2D0E942914B5018F2D0E943A1464E01A
:1055500070E08F2D0E9496210E947B0C0E94F00F1C
:105560006B017C01F80184850E94EF21873129F1CC
:105570008C3119F1882309F4B5CF0E94F00FAB01EB
:10558000BC014C195D096E097F09F8018585968576
:10559000B0E0A0E084179507A607B70738F061E0F0
:1055A00070E080E090E00E94C00FDCCF84850E9414
:1055B000C22188E0F801848795CF81E090E094CF04
:1055C0000F931F93CF93DF9300D0CDB7DEB7FC01CD
:1055D000248510E000E02830D8F48C01CE0101963B
:1055E0000E94A31789819A810E94470D22E030E032
:1055F000AE014F5F5F4F60E170E0F80184850E946B
:10560000DA2209811A811027012710270E947B0CBA
:10561000C8010F900F90DF91CF911F910F910895C6
:105620000F931F93CF93DF9300D0CDB7DEB7FC016C
:10563000248510E000E02830D8F48C01CE010196DA
:105640000E94A31789819A810E94470D22E030E0D1
:10565000AE014F5F5F4F64E070E0F80184850E9407
:10566000DA2209811A811027012710270E947B0C5A
:10567000C8010F900F90DF91CF911F910F91089566
:105680000F931F93CF93DF9300D0CDB7DEB78C017C
:1056900086EC9BEFF801808391831282138214823F
:1056A0001582CE0101960E94A31789819A810E94DA
:1056B000470DB8016E5F7F4F44E050E08FE090E00F
:1056C0000E94A11E0E947B0CC8010F900F90DF91D9
:1056D000CF911F910F910895E1E8F9E280E8DF0191
:1056E0001D928A95E9F710922A290895CF93DF93A6
:1056F000C82FD0E0FE01E058F64D80818F3319F4B9
:1057000081E08093042A8091082B823059F48091A3
:10571000642B813039F041E060910B2B80910A2B92
:105720000E947B19BE0181E899E20E94BF19809115
:10573000032A9091082B9230C1F4811118C00E9465
:1057400066198091582B82FF04C08DE498E10E9475
:10575000C11D8091022A81110E94051E0E946C2B9E
:105760001092012ADF91CF910895882351F310926E
:10577000032AE7CFEF92FF920F931F93CF93DF930C
:10578000E1E8F9E290E0AC01425051099F01215853
:105790003942241735071CF422812193F7CFFC01ED
:1057A000E158F64D10828058964DFC011082809190
:1057B000022A882321F089E69BE20E941F1C809127
:1057C0008129882379F18D3069F18A3059F162E6B7
:1057D0007CEF81E899E20E946657EC0188E5E82EAB
:1057E0008AEFF82E10E000E0BE01F7018081918180
:1057F0000E94015C892B49F10F5F1F4FF6E0EF0E0D
:10580000F11C0C32110581F70E94B91C0BC00990E4
:105810000020E9F70480F581E02D8881882391F04C
:10582000CE0109950E946C2B1092012A8091022AC8
:10583000882349F1DF91CF911F910F91FF90EF9055
:105840000C94051E90E080E0ECCF86E0809FF00194
:10585000819FF00D1124E85AF5402091082B30E08B
:105860008281938128233923232B89F60E94B91C36
:105870008091022A8823B1F261E278E189E69BE215
:105880000E94A71CCFCFDF91CF911F910F91FF9066
:10589000EF900895DC0186EC9BEF8D939D9384E05F
:1058A000FB0101900D928A95E1F70895EF92FF9226
:1058B0000F931F93CF93DF9300D000D0CDB7DEB707
:1058C0008C017B01FB0184858830A0F086EC9BEF86
:1058D000F801808391831282138214821582C80199
:1058E0002496CDBFDEBFDF91CF911F910F91FF9026
:1058F000EF900895CE0101960E94A31789819A81A5
:105900000E94470D24E030E0AE014F5F5F4F6CE036
:1059100070E0F70184850E94DA220E947B0CBE01B0
:105920006F5F7F4FC8010E944A2CD9CF7F928F9220
:105930009F92AF92BF92CF92DF92EF92FF920F931E
:105940001F93CF93DF93CDB7DEB7A697CDBFDEBF52
:105950008C01762E942E852E20E2A22ECE01019669
:105960007C01DC01EA2D1D92EA95E9F76801F3E478
:10597000CF0ED11C86EC9BEF89A39AA38FEF8BA34C
:105980008CA38DA38EA343E450E0BE016F5D7F4FD7
:10599000C6010E94A917019609F4BFC081E089835E
:1059A0008A8386E0B82EBB821C82D80114966D9142
:1059B0007D918D919C9117970E94EE5A6D837E8305
:1059C0008F83988789869A8680E890E08B879C876A
:1059D0004CE150E0B701C6010E94A525FE013796B3
:1059E0008AE1DF011D928A95E9F74801B8E08B0E44
:1059F000911CF401D70101900D92BA94E1F740E1B6
:105A000050E0B701C6010E94A525F7011192AA94A2
:105A1000E9F796E0A92EB12C40E250E0B701C601AB
:105A20000E94A525F1E0AF1AB108B1F783E689839A
:105A300092E89A8393E59B838C8385E38D8381E051
:105A40008E837F829DE3988797E099878A8786E097
:105A5000F401DE011B9601900D928A95E1F78CE02E
:105A6000898B8A8B67EE7BEFCE0143960E94145C94
:105A7000D8011B966C91CE0149960E94370EF80111
:105A80006485CE014B960E94370ED8011D966C910D
:105A9000CE014D960E94370E4EE150E0B701C6018F
:105AA0000E94A525B3E07B121EC082E3898384E0B7
:105AB0008A83F80196859B8397859C8390899D8333
:105AC00091899E8396E39F838887828D8987838DC2
:105AD0008A87848D8B87858D8C874CE050E0B70159
:105AE000C6010E94A52587E3898386E08A8391E029
:105AF0009B8393E09C838D838FE08E838AE38F83E7
:105B00008BE388878FEF898749E050E0B701C601B2
:105B10000E94A525C6010E949222A696CDBFDEBF97
:105B2000DF91CF911F910F91FF90EF90DF90CF9079
:105B3000BF90AF909F908F907F9008950F931F9389
:105B4000CF93DF93CDB7DEB72897CDBFDEBF8C01F3
:105B5000D80159964D915C915A974115510551F0D4
:105B6000ED91FC91028CF38DE02D70E060E0C801B6
:105B70000995EECFF801808D0E942226892B99F19C
:105B800048E050E0BE016F5F7F4FD80158968C917E
:105B90000E94E22718161906F4F4D801509684E002
:105BA000FE01319601900D928A95E1F78D8190E08A
:105BB000982F88272E81820F911DF801848B958B59
:105BC0008F81282F30E0322F22278885820F932F54
:105BD000911D818F928F2896CDBFDEBFDF91CF912F
:105BE0001F910F91089590E080E0F5CF4F925F9262
:105BF0006F927F928F929F92AF92BF92CF92DF92DD
:105C0000EF92FF920F931F93CF93DF93CDB7DEB741
:105C10006397CDBFDEBF7C016B013A01FB0120E041
:105C200090E080E06AE03191332309F461C040EDF7
:105C3000430F4A3008F04DC0689FA001699F500D86
:105C40001124CA01C097830F911D37FD9A958F3F8C
:105C5000910549F340F3F7014281538164817581D5
:105C60008091482A9091492AA0914A2AB0914B2AC2
:105C7000481759076A077B0709F40AC28701085FBA
:105C80001F4F0E94F00F6F7077277C5FC8010E9442
:105C9000ED29813009F001C286EC9BEF89839A835C
:105CA000F70182819381A481B5818B839C83AD832D
:105CB000BE8345E350E0BE016F5F7F4FC8010E9485
:105CC000A917892B91F5D12CC12CC8010E94DE2186
:105CD00017C03E3209F0BFCF233009F4BCCFD30147
