:100200000C94D40B0C94FC0B0C94FC0B0C94FC0B7A
:100210000C94FC0B0C94FC0B0C94FC0B0C94FC0B42
:100220000C94FC0B0C94FC0B0C94FC0B0C94FC0B32
:100230000C94FC0B0C94FC0B0C949D3C0C94403DDA
:100240000C94FC0B0C946F3C0C94493C0C94FC0BF0
:100250000C94FC0B0C94FC0B0C94FC0B0C94FC0B02
:100260000C94FC0B0C94213C0C94FC0B0C94FC0B9C
:100270000C94FC0B0C94FC0B0C94FC0B0C94FC0BE2
:100280000C94FC0B0C94FC0B0C94FC0B0C94FC0BD2
:100290000C94FC0B0C94FC0B0C94FC0B0C94FC0BC2
:1002A0006364696E6F70737578585B003F202D2012
:1002B0004D656E750032202D20536574206465668F
:1002C00061756C7420696E737472756D656E7420DF
:1002D000616464726573730031202D20536574204E
:1002E00049502061646472657373000A436F6D6DD9
:1002F000616E642061626F727465642E000A496EDB
:1003000076616C696420495020616464726573731E
:1003100020666F726D61742E00596F752077696C5D
:100320006C206E65656420746F207265626F6F74F7
:10033000206E6F772E000A49502041646472657305
:10034000732077696C6C2062652073657420746F0C
:100350003A2000456E746572207468652064657388
:10036000697265642049502061646472657373200A
:1003700028302E302E302E30206D65616E733A207D
:100380007573652044484350293A200076696120FE
:10039000444843502E00436F6E666967757265640A
:1003A00020495020416464726573733A20000A4307
:1003B000757272656E742049502041646472657371
:1003C000733A20000A436F6D6D616E642061626F45
:1003D000727465642E000A496E76616C69642069E6
:1003E0006E737472756D656E74206164647265738A
:1003F000732E00596F752077696C6C206E6565648B
:1004000020746F207265626F6F74206E6F772E009C
:100410000A44656661756C7420496E737472756DFB
:10042000656E7420616464726573732077696C6CA7
:100430002062652073657420746F3A2000456E74E5
:1004400065722074686520646573697265642064F0
:10045000656661756C7420696E737472756D656E16
:100460007420616464726573732028302D333029E1
:100470002C20776974682030206265696E6720746B
:10048000686520676174657761793A20000A437571
:100490007272656E742064656661756C7420696E35
:1004A000737472756D656E742061646472657373C4
:1004B0003A20002D205352414D206C6566743A203D
:1004C00000496E697469616C6973696E672045459E
:1004D00050524F4D2E2E2E2E00454550524F4D203E
:1004E00043524320636865636B206661696C656491
:1004F0002E2045726173696E6720454550524F4DFD
:100500002E2E2E2E002121204E6F2076616C6964E4
:10051000204950206164647265737320617373694C
:10052000676E65642E20506C656173652063686535
:10053000636B20796F7572206E6574776F726B20B4
:1005400073657474696E67732E004950204164644A
:10055000726573733A20004D6178696D756D206E18
:10056000756D626572206F66206368617261637485
:1005700065727320697320726561636865642069C0
:100580006E206120636F6D6D616E64207465787498
:100590000000536574757020636F6D706C657465D1
:1005A0002E005374617274696E67205365726961BD
:1005B0006C204D656E752E2E2E0053746172746919
:1005C0006E672057656220736572766572206F6E64
:1005D00020706F72742038302E2E2E005658492D00
:1005E0003131207365727665727320737461727431
:1005F0006564005374617274696E67205658492DA2
:10060000313120706F7274206D617070657273206B
:100610006F6E2054435020616E6420554450206F0B
:100620006E20706F7274203131312E2E2E00537473
:10063000617274696E67205658492D3131205443D8
:10064000502052504320736572766572206F6E2081
:10065000706F727420393031302E2E2E0057616940
:1006600074696E6720666F7220444843502E2E2EA8
:100670000054686520646576696365732773206438
:10068000656661756C742061646472657373207053
:100690006F696E747320746F204750494220616403
:1006A00064726573732000436F6E66696775726963
:1006B0006E6720616E64205374617274696E672086
:1006C00047504942206275732E2E2E004D41432023
:1006D000416464726573733A20004B6F666F747285
:1006E0006F6E696320506F452045746865726E6552
:1006F00074204750494220476174657761792076BC
:10070000322E342D302E35332E333900202D3E201D
:1007100063616E63656C6C6174696F6E202100208B
:100720002D3E2063616E63656C6C6174696F6E2031
:100730002100202D3E20746F6F206D616E79206145
:100740007267756D656E7473202120286F6E652049
:10075000636861726163746572206F6E6C792900E1
:1007600000202D3E204E6F20636F6D6D616E642002
:10077000636F6465206D61746368696E6720210032
:10078000202D3E20746F6F206D616E79206172673D
:10079000756D656E7473202120286F6E6520636807
:1007A00061726163746572206F6E6C7929002C2010
:1007B000506C6561736520696E666F726D20796F2C
:1007C000757220636C69656E747321004950204115
:1007D00064647265737320686173206368616E6717
:1007E000656420746F200049502041646472657311
:1007F0007320686173206265656E20617373696739
:100800006E65643A200045746865726E6574206C8C
:10081000696E6B206973204F4B206E6F77005265B5
:1008200073657474696E6720616C6C20636C6965B4
:100830006E7420636F6E6E656374696F6E732E2EB7
:100840002E002069732077726F6E672E20506C65C2
:1008500061736520636865636B20444843502100E1
:100860004950204164647265737320004574686563
:10087000726E6574206C696E6B206973204F4646FA
:10088000003C2F6F7074696F6E3E00223E003C6F1B
:100890007074696F6E2076616C75653D22003C2F27
:1008A000626F64793E3C2F68746D6C3E0A0A003CAE
:1008B0002F73656C6563743E3C2F74643E3C2F74EB
:1008C000723E3C74723E3C746420636F6C73706162
:1008D0006E3D2232223E3C627574746F6E206964F4
:1008E0003D22657822206F6E636C69636B3D2265E3
:1008F00078283029223E51756572793C2F627574D3
:10090000746F6E3E266E6273703B266E6273703B30
:100910003C627574746F6E206F6E636C69636B3DBF
:1009200022657828312922207374796C653D226212
:1009300061636B67726F756E642D636F6C6F723A73
:1009400020233838383B223E53656E643C2F627555
:1009500074746F6E3E203C627574746F6E206F6E9F
:10096000636C69636B3D2265782832292220737499
:10097000796C653D226261636B67726F756E642D81
:10098000636F6C6F723A20233838383B223E5265D1
:1009900061643C2F627574746F6E3E203C2F7464EA
:1009A0003E3C2F74723E3C74723E3C746820636F10
:1009B0006C7370616E3D2232223E486973746F72AF
:1009C000793C2F74683E3C2F74723E3C74723E3CFE
:1009D000746420636F6C7370616E3D2232223E3C02
:1009E00074657874617265612069643D22722220A9
:1009F000726F77733D2231302220636F6C733D221A
:100A000038302220726561646F6E6C793E3C2F74C1
:100A1000657874617265613E3C6272202F3E203CB5
:100A2000627574746F6E206F6E636C69636B3D22C8
:100A300073656C662E722E76616C75653D27273B5B
:100A4000207363726F6C6C2829223E436C6561725F
:100A500020686973746F72793C2F627574746F6E5D
:100A60003E3C2F74643E3C2F74723E3C2F74616296
:100A70006C653E0A3C7363726970743E0A66756EFB
:100A80006374696F6E207469636B2829207B20660C
:100A90006574636828222F636E782229202E74687B
:100AA000656E2828726573706F6E736529203D3EF0
:100AB000207B206966202821726573706F6E7365D4
:100AC0002E6F6B29207B2072657475726E20223F19
:100AD000223B207D2072657475726E207265737082
:100AE0006F6E73652E7465787428293B207D2920EC
:100AF0002E7468656E28286461746129203D3E204B
:100B00007B2073656C662E636E782E696E6E6572DF
:100B100048544D4C203D20646174613B207D293B4D
:100B2000207D0A736574496E74657276616C2874F1
:100B300069636B2C2035303030293B66756E6374E9
:100B4000696F6E2066696E642829207B2066657453
:100B5000636828222F666E642229202E7468656ED1
:100B60002828726573706F6E736529203D3E207B67
:100B7000206966202821726573706F6E73652E6F11
:100B80006B29207B207468726F77206E6577204513
:100B900072726F7228224552523A2022202B207204
:100BA0006573706F6E73652E7374617475735465BD
:100BB0007874293B207D2072657475726E20726591
:100BC00073706F6E73652E7465787428293B207D71
:100BD00029202E7468656E28286461746129203D7F
:100BE0003E207B2073656C662E696E73742E696E71
:100BF0006E657248544D4C203D20646174613B2009
:100C00007D293B207D3B0A66756E6374696F6E209B
:100C10006578287429207B20636F6E737420696E59
:100C20007374203D2073656C662E696E73742E7626
:100C3000616C75653B20636F6E737420636D642017
:100C40003D2073656C662E636D642E76616C7565F0
:100C50003B0A69662028696E7374203D3D3D202261
:100C60002229207B20616C6572742822506C65619A
:100C700073652073656C65637420616E20696E73A3
:100C80007472756D656E7422293B2072657475727D
:100C90006E3B207D0A766172206D203D20222F65FB
:100CA0007822202B20742E746F537472696E67281B
:100CB00029202B20222F22202B20696E7374202BB9
:100CC00020222F223B0A6966202874203C203229EA
:100CD000207B2069662028636D64203D3D3D2022F5
:100CE0002229207B20616C6572742822506C65611A
:100CF000736520656E746572206120636F6D6D6130
:100D00006E6422293B2072657475726E3B207D20D3
:100D10006D202B3D20636D643B207D0A73656C66FE
:100D20002E722E76616C7565203D20225C6E22202D
:100D30002B2073656C662E722E76616C75653B2078
:100D4000646F63756D656E742E626F64792E737453
:100D5000796C652E637572736F72203D2027776101
:100D60006974273B20646F63756D656E742E6765CB
:100D700074456C656D656E744279496428226578A6
:100D800022292E7374796C652E637572736F7220CD
:100D90003D202777616974273B2066657463682866
:100DA0006D29202E7468656E2828726573706F6EC9
:100DB000736529203D3E207B20646F63756D656EF1
:100DC000742E626F64792E7374796C652E637572FC
:100DD000736F72203D202764656661756C74273BD4
:100DE00020646F63756D656E742E676574456C6500
:100DF0006D656E74427949642822657822292E73C4
:100E000074796C652E637572736F72203D20276450
:100E1000656661756C74273B2069662028217265C0
:100E200073706F6E73652E6F6B29207B20746872F0
:100E30006F77206E6577204572726F722822455257
:100E4000523A2022202B20726573706F6E73652ECC
:100E500073746174757354657874293B207D2072B6
:100E6000657475726E20726573706F6E73652E7423
:100E700065787428293B207D290A2E7468656E28C0
:100E8000286461746129203D3E207B20696620280A
:100E90002874203D3D3D2032297C7C282874203D4B
:100EA0003D3D2030292626286461746120213D3D86
:100EB000202222292929207B2073656C662E722E20
:100EC00076616C7565203D20223C3D2022202B2040
:100ED000696E7374202B20223A2022202B2064611B
:100EE00074612E7472696D2829202B20225C6E2279
:100EF000202B2073656C662E722E76616C75653BB7
:100F0000207D0A6966202874203C203229207B201D
:100F100073656C662E722E76616C7565203D20229D
:100F20003D3E2022202B20696E7374202B20223A14
:100F30002022202B20636D64202B20225C6E222037
:100F40002B2073656C662E722E76616C75653B2066
:100F50007D0A7363726F6C6C28293B207D293B20CE
:100F60007D3B0A66756E6374696F6E207363726F82
:100F70006C6C2829207B2073656C662E722E73633F
:100F8000726F6C6C546F70203D20303B207D0A6482
:100F90006F63756D656E742E717565727953656CCE
:100FA0006563746F72282223636D6422292E616445
:100FB000644576656E744C697374656E657228223B
:100FC0006B65797570222C206576656E74203D3EC8
:100FD000207B206966286576656E742E6B657920A6
:100FE000213D3D2022456E74657222292072657470
:100FF00075726E3B20646F63756D656E742E7175CE
:1010000065727953656C6563746F72282223657805
:1010100022292E636C69636B28293B206576656EF7
:10102000742E70726576656E7444656661756C7455
:1010300028293B207D293B0A3C2F73637269707419
:101040003E0A003C68323E496E74657261637469A1
:10105000766520494F3C2F68323E3C7461626C6576
:101060003E3C74723E3C746420636F6C7370616EBE
:101070003D2233223E53656E642072656D6F746548
:101080002070726F6772616D6D696E6720285343BF
:1010900050492920636F6D6D616E647320616E64C9
:1010A000207175657269657320746F20746865209E
:1010B000696E737472756D656E7420616E642076EE
:1010C0006965772074686520726573706F6E7365EB
:1010D000732072657475726E65642062792074681D
:1010E0006520696E737472756D656E742E3C6272E4
:1010F000202F3E3C2F74643E3C2F74723E203C7483
:10110000723E3C74683E496E737472756D656E74A0
:10111000733C2F74683E3C746820636F6C7370611D
:101120006E3D2232223E436F6D6D616E643C2F74C2
:10113000683E3C2F74723E203C74723E3C746420C6
:10114000726F777370616E3D2234223E3C73656C22
:101150006563742069643D22696E7374222073692B
:101160007A653D223422207374796C653D2277695B
:101170006474683A203863683B206F766572666CE9
:101180006F772D793A206175746F3B223E3C2F7347
:10119000656C6563743E3C6272202F3E3C627574E0
:1011A000746F6E206F6E636C69636B3D2266696E4F
:1011B000642829223E46696E643C2F627574746F00
:1011C0006E3E3C2F74643E3C74642077696474689E
:1011D0003D22383025223E3C696E7075742074794A
:1011E00070653D2274657874222069643D22636DC8
:1011F0006422206D61786C656E6774683D313030B3
:101200002076616C75653D2222202F3E3C2F746450
:101210003E3C74643E3C627574746F6E206F6E6306
:101220006C69636B3D2273656C662E636D642E760C
:10123000616C75653D73656C662E7072652E7661A6
:101240006C7565223E266C743B3C2F627574746F1E
:101250006E3E3C73656C6563742069643D227072F8
:1012600065223E003A3A677069622C3C693E4E3C0A
:101270002F693E3A3A494E5354523C2F623E206FFA
:1012800072203C623E2E2E2E3A3A696E73743C698F
:101290003E4E3C2F693E3A3A494E5354523C2F62DF
:1012A0003E2C207768657265203C693E4E3C2F6974
:1012B0003E20697320746865697220616464726598
:1012C0007373206F6E207468652047504942206216
:1012D00075732028312E2E3330293C2F74643E3C08
:1012E0002F74723E3C2F7461626C653E003A3A493D
:1012F0004E5354523C2F623E2028756E6C657373BA
:1013000020796F7520686176652073657420746834
:10131000652064656661756C7420696E737472759E
:101320006D656E74206164647265737320746F20E0
:10133000736F6D657468696E6720656C7365207482
:1013400068616E2030293C2F74643E3C2F74723EDD
:101350003C74723E3C74643E496E737472756D6584
:101360006E74733A3C2F74643E3C74643E3C623E3F
:1013700054435049503A3A003C68323E5658492D41
:1013800031312C205649534120636F6E6E65637472
:10139000696F6E20737472696E67733C2F68323E9A
:1013A0003C7461626C653E3C74723E3C74643E43C6
:1013B0006F6E74726F6C6C65723A3C2F74643E3C55
:1013C00074643E3C623E54435049503A3A003C2FCC
:1013D0007370616E3E3C2F703E0A003C21444F43C7
:1013E000545950452068746D6C3E3C68746D6C2097
:1013F0006C616E673D22656E223E3C686561643EAD
:101400003C6D65746120636861727365743D22553B
:1014100054462D3822202F3E203C6D657461206E8D
:10142000616D653D2276696577706F727422206305
:101430006F6E74656E743D2277696474683D64658F
:10144000766963652D77696474682C20696E6974A8
:1014500069616C2D7363616C653D312E3022202FE4
:101460003E203C7469746C653E45746865726E65B7
:101470007432475049423C2F7469746C653E3C732A
:1014800074796C653E20626F6479207B20666F6E94
:10149000742D66616D696C793A20417269616C2CBA
:1014A0002073616E732D73657269663B207D2074B5
:1014B00061626C65207B20746578742D616C69674E
:1014C0006E3A206C6566743B20626F726465722DA3
:1014D000636F6C6C617073653A20636F6C6C6170E4
:1014E00073653B207D2074682C207464207B207001
:1014F000616464696E673A20327078203870783B96
:101500002077686974652D73706163653A206E6F2A
:10151000777261703B20766572746963616C2D61CE
:101520006C69676E3A20746F703B207D2074682070
:101530007B2070616464696E672D746F703A203827
:1015400070783B207D20627574746F6E207B206DF7
:10155000617267696E3A20307078203270783B2073
:10156000636F6C6F723A2077686974653B206261C3
:10157000636B67726F756E642D636F6C6F723A2068
:10158000233636363B2070616464696E673A2032D8
:10159000707820313270783B20626F726465722DF2
:1015A0007261646975733A203470783B20626F729F
:1015B0006465723A2031707820736F6C69642023FF
:1015C0003838383B20637572736F723A20706F69D8
:1015D0006E7465723B207D207465787461726561FC
:1015E000207B2077696474683A20313030253B20B5
:1015F0007D20696E707574207B2077696474683A09
:1016000020313030253B207D206832207B20626FE6
:10161000726465722D626F74746F6D3A20327078E7
:1016200020736F6C696420677265793B207D3C2F65
:101630007374796C653E3C2F686561643E3C626FF3
:1016400064793E3C68313E4B6F666F74726F6E69B1
:101650006320506F452045746865726E657420473D
:1016600050494220476174657761792076322E3483
:101670002D302E35332E33393C2F68313E3C703EB1
:101680004E756D626572206F6620636C69656E745D
:1016900020636F6E6E656374696F6E733A203C737E
:1016A00070616E2069643D22636E78223E0048546A
:1016B00054502F312E3120323030204F4B0A436F9F
:1016C0006E74656E742D547970653A207465787403
:1016D0002F68746D6C0A436F6E6E656374696F6E0C
:1016E0003A20636C6F73650A0A00485454502F31D6
:1016F0002E3120343034204E6F7420466F756E6466
:101700000A00485454502F312E3120323030204FAF
:101710004B0A436F6E74656E742D547970653A2070
:10172000746578742F706C61696E0A436F6E6E65B4
:101730006374696F6E3A20636C6F73650A0A003CCC
:101740002F6F7074696F6E3E00223E003C6F7074A4
:10175000696F6E2076616C75653D2200496E746517
:101760007266616365206D697374616B652077696A
:101770007468206C69627261727920536572696164
:101780006C53657269616C4D656E75436D64004E96
:101790006F204D656E7520696E206D656D6F727975
:1017A000003E0000343E173E11241FBECFEFCDBFD8
:1017B000DFE3DEBF18E2A0E0B8E2E1E9F1EB02C04E
:1017C00005900D92AE31B107D9F726E3AEE1B8E24C
:1017D00001C01D92A731B207E1F71BE0C3EDDBE0CA
:1017E00004C02197FE010E943453C23DD107C9F7BE
:1017F0000E9405400C948C570C940001809120327B
:1018000090912132891B990B0895FC01BC01645A07
:101810007F4F8FEF9FEF2191322F3927232F229572
:101820002F702327422F50E0382FCA01982F882786
:101830009295907F28273927CA01B5E0880F991F14
:10184000BA95E1F7822793276E177F0721F708954E
:101850008F929F92AF92BF92CF92DF92EF92FF92C0
:101860000F93CF93DF938091AD32882319F081FFDE
:101870000DC07894DF91CF910F91FF90EF90DF90A2
:10188000CF90BF90AF909F908F90089580FFF2CF40
:101890008090AF329090B032A090B132B090B2321E
:1018A000C12CD12C7601E0E09401A501B601C7015D
:1018B000A0E00E94285391F1217030E040E050E018
:1018C00060E070E080E090E00E942853D1F0B0E04A
:1018D000A0E0E03370F4AE2FA695A695A69580E221
:1018E000A89FD0011124A05FBB4F8E2F8770A80F37
:1018F000B11DCE2FD0E0C955DD4C88899C91892B34
:101900008C939401A501B601C70101E00E940D531B
:1019100049015A016B017C01EF5FC6CF8090B33261
:101920009090B432A090B532B090B632C12CD12C88
:101930007601E0E29401A501B601C701A0E00E9492
:10194000285309F497CF217030E040E050E060E088
:1019500070E080E090E00E942853D1F0B0E0A0E079
:10196000E03370F4AE2FA695A695A69580E2A89FC9
:10197000D0011124A05FBB4F8E2F8770A80FB11D1F
:10198000CE2FD0E0C955DD4C88899C91892B8C9352
:101990009401A501B601C70101E00E940D53490160
:1019A0005A016B017C01EF5FC5CF00008093C40832
:1019B0008091C30887FFFCCF8091C40808950F93DE
:1019C0001F93CF93DF93EC018C01060F171FC017F5
:1019D000D10729F088810E94D50C8993F8CFDF9137
:1019E000CF911F910F9108958F929F92AF92BF92C6
:1019F000CF92DF92EF92FF920F931F93CF93DF93DB
:101A0000182FF92F8091AD32882319F081FF12C071
:101A1000F8941093C008F093C108DF91CF911F9103
:101A20000F91FF90EF90DF90CF90BF90AF909F907D
:101A30008F90089580FFEDCF8090AF329090B032BC
:101A4000A090B132B090B232C12CD12C7601E0E03E
:101A50009401A501B601C701A0E00E942853A9F195
:101A6000217030E040E050E060E070E080E090E025
:101A70000E942853E9F0D0E0C0E0E03370F4CE2FAC
:101A8000C695C695C69580E2C89FE0011124C05F47
:101A9000DB4F8E2F8770C80FD11D8E2F90E02881CD
:101AA00089559D4CDC0150962C938881887F8883D2
:101AB0009401A501B601C70101E00E940D5349013F
:101AC0005A016B017C01EF5FC3CF8090B3329090DD
:101AD000B432A090B532B090B632C12CD12C760180
:101AE000E0E29401A501B601C701A0E00E942853DD
:101AF00009F48FCF217030E040E050E060E070E00A
:101B000080E090E00E942853E9F0D0E0C0E0E033AC
:101B100070F4CE2FC695C695C695B0E2CB9FE00176
:101B20001124C05FDB4F8E2F8770C80FD11D8E2F01
:101B300090E0288189559D4CDC0150962C9388813A
:101B4000887F88839401A501B601C70101E00E9446
:101B50000D5349015A016B017C01EF5FC2CF20E3B5
:101B6000FC0120833296862F82958F706F706A30C9
:101B700030F4605D6293682F8111F5CF0895695C40
:101B8000F9CFFC01818D928D08950895CF93DF9355
:101B900090E0FC01EB53F04120812F3F61F0FC010C
:101BA000E456F041E08130E2E39FF0011124FC5F54
:101BB000613021F42183DF91CF9108958D589041B8
:101BC000EC01A881AF3F69F0CF014096A80FB92F73
:101BD000B11D9FB7F89422838C9188608C939FBF2E
:101BE000EACFB0E0A0E0F5CF90E0FC01E65BF04189
:101BF000E081EE2319F1E13021F000F1E630A8F0A8
:101C000008958D589041FC012081233008F02F5F0A
:101C10003091010A81E090E001C0880F2A95EAF72F
:101C2000809583238093010A089580E1E89FF00165
:101C30001124E05AF54F81818F7E818308950F939F
:101C40001F93CF93DF93C82FD0E0FE01EB53F041F9
:101C500000810F3FA1F0162F893210F40E94F40D7D
:101C6000FE01E456F041E08180E2E89FF00111249A
:101C7000FC5F8081802351F0111106C00683DF9143
:101C8000CF911F910F9108950583F9CFCD58D04181
:101C90008881309771F08F3F61F07096E80FF11DE9
:101CA0009FB7F8948081111107C0877F80839FBF01
:101CB000E6CFF0E0E0E0F4CF8860F8CF0F931F9319
:101CC000CF93082F10E0F801EB53F041C081CF3FD4
:101CD00079F00E94F40DF801E456F041E08180E2D1
:101CE000E89FF0011124FC5F8085C82381E009F49E
:101CF00080E0CF911F910F910895893210F40C94D8
:101D00001F0E0895EF92FF920F931F93CF93DF93CF
:101D1000E82EF12CF701ED58F04100810F3FD9F189
:101D2000EB01182F61E00E94C60D209751F460E08E
:101D3000812FDF91CF911F910F91FF90EF900C9425
:101D40007D0ECF3FD10511F461E0F2CFF701E65BE4
:101D5000F041E081E13039F010F0E63030F1C03888
:101D6000D10594F7E4CFE02FF0E0EE0FFF1F033032
:101D7000C8F0ED5DF54F0F5F8FB7F894C0838FBF4C
:101D80008091010A21E030E001C0220F0A95EAF7B4
:101D9000822B8093010ADF91CF911F910F91FF90C9
:101DA000EF900895E85DF54FE7CF80E1E89FF001FF
:101DB0001124E05AF54F8FB7F89494859487C5871E
:101DC0008FBF818180618183E6CF00000000000029
:101DD00000009C0127503109880F991F880F991F17
:101DE000820F931F0197F1F708956FB7F894209130
:101DF0000D3130910E3140910F3150911031809161
:101E0000AA0A9091AB0A7091A60A70FF08C02F5FD2
:101E10003F4F4F4F5F4F8091AA0A9091AB0A6FBF1F
:101E2000E92FFF27BC01A4E076956795AA95E1F715
:101E3000E60FF71FBC01B6E076956795BA95E1F716
:101E4000E61BF70B892F992786958695E81BF90BDA
:101E5000A8EEB3E00E94B1526E0F7F1F811D911D4D
:101E600008958F929F92AF92BF92CF92DF92EF929E
:101E7000FF924B015C010E94F50E6B017C01A8EE04
:101E8000B3E0A50194010E94B152C60ED71EE81E10
:101E9000F91EC616D706E806F90618F40E94F50ED4
:101EA000F8CF0E94F50E6C157D058E059F05C8F3D1
:101EB000FF90EF90DF90CF90BF90AF909F908F906A
:101EC00008952FB7F89460910D3170910E31809183
:101ED0000F31909110312FBF089521E0FC018485CE
:101EE000883008F020E0822F08952EEA30EFFC01C0
:101EF00020833183FB014089518962897389FC0108
:101F000042835383648375830895FC018489958992
:101F100008954F925F926F927F92AF92BF92CF924D
:101F2000DF92EF92FF920F931F93CF93DF93EC0119
:101F30006B017B01E40EF51E8B015801AC18BD0846
:101F40000E151F0511F10E94610F688779878A8736
:101F50009B87E881F9810284F385E02DCE01099504
:101F600097FF23C00E94610F488459846A847B8450
:101F700064197509860997094C805D806E807F80A1
:101F8000641575058605970520F3C501DF91CF918E
:101F90001F910F91FF90EF90DF90CF90BF90AF9087
:101FA0007F906F905F904F900895F80181938F011B
:101FB000C4CFDC01ED91FC910190F081E02D0994FA
:101FC000EF92FF920F931F93CF93DF938C017B01CE
:101FD000D0E0C0E0F701EC0FFD1F6491662361F0D3
:101FE000D801ED91FC910190F081E02DC801099597
:101FF000892B11F02196EECFCE01DF91CF911F9169
:102000000F91FF90EF900895AF92BF92CF92DF9221
:10201000EF92FF920F931F93CF93DF936C017B019D
:102020008B01040F151FEB015E01AE18BF08C0172E
:10203000D10759F06991D601ED91FC910190F081A1
:10204000E02DC6010995892B79F7C501DF91CF9164
:102050001F910F91FF90EF90DF90CF90BF90AF90C6
:102060000895FC01508D418D252F30E0842F90E0A4
:10207000821B930B541710F0CF9608950197089583
:10208000FC0196898789981761F0A789AE0FBF2F49
:10209000B11D5D968C9197899F5F9F73978B90E0A0
:1020A00008958FEF9FEF0895FC019689878998170F
:1020B00031F08789E80FF11D858D90E008958FEF4D
:1020C0009FEF0895FC0196892789892F90E0805C15
:1020D0009F4F821B91098F73992708958EEE92E38B
:1020E0000E94621021E0892B09F420E0822F0895DC
:1020F000CF93DF93EC01E881F9810680F781E02D31
:102100000995EC85FD8586818F738683EC85FD8539
:1021100085818F7585838F898E8B1D8ADF91CF9105
:102120000895AF92BF92CF92DF92EF92FF920F93FA
:102130001F93CF93DF93EC016A017B01A22E8D895F
:10214000882339F0E881F9810688F789E02DCE01EE
:1021500009950C8910E0BFB6F89460E078E689E84C
:1021600099E0A70196010E94705269017A018FEFF0
:10217000C81AD80AE80AF80AF694E794D794C794DC
:10218000EC85FD8586818D7F8683EC85FD85868146
:1021900086831D8AA09125110A2E000CBB0BA70176
:1021A00096010E94BC5220E034E040E050E00E94E2
:1021B0009252EC85FD85C20ED31EE41EF51EC0862C
:1021C000D186EC85FD85A782EC85FD858681806CB6
:1021D0008683EC85FD858581806885839091E20505
:1021E0008B89809589237801EE0CFF1CF701E00FA5
:1021F000F11FEC0FFD1F9089892B8093E2058685E6
:10220000893218F462E00E94C60D0E0D1F1DC00F2A
:10221000D11F61E08F850E947D0E8F85893218F471
:1022200061E00E94C60DBFBEDF91CF911F910F915B
:10223000FF90EF90DF90CF90BF90AF900895FC019A
:10224000613019F4648B81E00895148A6623D9F310
:1022500080E00895DC0154961C92549754968C911A
:1022600054978230A0F4282F30E0F901EE0FFF1FC1
:10227000E20FF31FEA0FFB1F9785961303C09685A5
:10228000941749F08F5F54968C935497E7CF5496E8
:102290001C9280E0089581E00895CF93DF93FC01C4
:1022A000908D818DC485D585981306C08D818F7DD5
:1022B0008D83DF91CF910895A18DAE0FBF2FB11DFA
:1022C000A35ABF4F2C91818D90E001968F7399276F
:1022D000818F80E48C83A485B58512962C93908D94
:1022E000818D9813E6CFA485B58515968C911597A9
:1022F0008F7D15968C93838D8823D9F2848D80935E
:102300001301138ED6CFDC011C96ED91FC910FB614
:1023100007FE03C0258125FD04C0248125FD0C9402
:102320004D110895EF92FF920F931F93CF93DF9378
:10233000EC0181E08D8B988D898D98131CC0AC8544
:10234000BD8514968C91149785FF15C012966C93D9
:10235000AC85BD8580E414968C93EC85FD858581E4
:102360008F7D858381E090E0DF91CF911F910F9168
:10237000FF90EF9008958091110180FF08C0809137
:1023800013018C8F8A8D8093130181E08B8FF62E41
:10239000088D10E00F5F1F4F0F731127E02E898DFE
:1023A0008E1104C0CE010E948311F9CFE88DEC0F8D
:1023B000FD2FF11DE35AFF4FF082088FEC85FD855C
:1023C00085818062CECF682F8EEE92E30C949211BD
:1023D000CF93DF93FC0125892223C9F0EC01809182
:1023E000110180FF08C080911301848F828D80933A
:1023F000130181E0838FEC85FD85858185FD03C018
:10240000848186FD04C0CE010E948311F4CFDF9148
:10241000CF91089580E090E0892B29F00E946E1002
:1024200081110E94000080E090E0892B49F080E05B
:1024300090E0892B29F00E94000081110E94000089
:1024400080E090E0892B49F080E090E0892B29F032
:102450000E94000081110E94000080E090E0892B22
:1024600049F080E090E0892B29F00E940000811162
:102470000C940000089581E008950F9391E09093EB
:1024800062321092312860932F2870933028409345
:102490002E2820932D281092322810923328009352
:1024A0002C28880F80932B2893E024E080912E28FD
:1024B000882331F09093633280912B288E7F09C05E
:1024C00080912D28882341F02093633280912B281E
:1024D00081608093A70808C080912E28811104C0D4
:1024E00080912D28882331F3809131288823E1F3CE
:1024F000809131288330D1F280912D28882321F0DA
:10250000809133280F9108959091312881E0913086
:10251000C9F780E0F7CFE0EAF8E09185906691870F
:1025200092E0909363328093252810922428089596
:1025300081E0809324281092252893E09093AA08A4
:102540009091AB0891FF0BC010922928F0E0E0E0D9
:1025500009958093282885E080936332089510922E
:102560002A288093272886E0F7CFE09121328091B6
:102570002032E81730F4F0E0EE5DFD4C808190E011
:1025800008958FEF9FEF089590912132809120322E
:102590002FEF3FEF981748F4E92FF0E0EE5DFD4C88
:1025A000208130E09F5F90932132C9010895CF923E
:1025B000DF92EF92FF920F931F93CF93DF937C01F3
:1025C0008A01EB016B01C40ED51ECC15DD0551F05F
:1025D0006991D701ED91FC910190F081E02DC70147
:1025E0000995F3CFC801DF91CF911F910F91FF9013
:1025F000EF90DF90CF9008952091A432203440F0E6
:1026000021E030E0FC012283338390E080E00895F4
:102610008091A532E82FF0E0EC59FD4C60838F5F8C
:102620008093A5328093A43281E090E00895CF9307
:10263000DF93EC018C819D81DC01ED91FC910480A4
:10264000F581E02D09952A853B85009739F4888529
:102650009985821B930BDF91CF910895821B930B79
:1026600097FFF9CF90E080E0F6CFCF93DF93DC01C6
:102670001A964D915C914115510599F1EC018C81AF
:102680009D816E817F81DC01ED91FC910280F3815F
:10269000E02D09952A853B85281B390B2A873B8726
:1026A000232BA9F0009799F030E020E04A855B8564
:1026B0002417350760F4EE81FF81E20FF31FDF017D
:1026C000A80FB91F4C9140832F5F3F4FEFCFEC8194
:1026D000FD8182819381892B21F081E090E08A83C2
:1026E0009B83DF91CF910895AF92BF92CF92DF92FB
:1026F000EF92FF920F931F93CF93DF938C016B01A7
:102700005A017B01D0E0C0E0CA15DB05B9F1D80160
:102710001A968D919C911B97892B09F5A5014C1B4D
:102720005D0B18968D919C91199748175907B8F031
:1027300014968D919C91B6016C0F7D1FDC01ED917B
:10274000FC910280F381E02DDF91CF911F910F91D9
:10275000FF90EF90DF90CF90BF90AF900994F7017A
:1027600061917F01D801ED91FC910190F081E02D04
:10277000C8010995892B11F02196C6CFCE01DF91B2
:10278000CF911F910F91FF90EF90DF90CF90BF906E
:10279000AF900895FC01A681B781828593859C0145
:1027A0002F5F3F4F22873387A80FB91F6C93228575
:1027B0003385808591852817390741F4CF01019031
:1027C000F081E02D0680F781E02D099581E090E011
:1027D0000895E0912028F0912128808190911F2870
:1027E000892B80830895E0912028F0912128908101
:1027F00080911F288095892380830895AF92BF928E
:10280000CF92DF92EF92FF920F931F93CF93DF93BC
:10281000CDB7DEB72897CDBFDEBF8C017B016A0143
:10282000809159318333E1F45801A40EB51EA016EE
:10283000B10609F46FC00E94F31380EF0E94D50C1B
:10284000812F0E94D50C802F0E94D50C0F5F1F4F47
:10285000F70181917F010E94D50C0E94E913E7CF17
:102860005B01A40EB51E8433C1F40E94F3131983D7
:102870000A838D2D80688B83CC8264E070E0CE016A
:1028800001960E94DF0CAE14BF0409F441C0F701A9
:1028900081917F010E94D50CF6CF0E94F3130F3F68
:1028A000110509F028F419820A8384E08B830CC097
:1028B00017FD17C019820A8333E0169507953A95DC
:1028C000E1F7007E0C600B8386E0C816D10488F522
:1028D000F701DE011496EA15FB0599F081918D93BD
:1028E000FACFC80126E0969587952A95E1F7807E74
:1028F00019830A830115104C10F48461D7CF8C61C1
:10290000D5CFB6016D5F7F4FCE0101960E94DF0CDF
:102910000E94E913C6012896CDBFDEBFDF91CF919B
:102920001F910F91FF90EF90DF90CF90BF90AF90ED
:10293000089563E070E0CE0101960E94DF0CF7017C
:1029400081917F010E94D50CAE14BF04C1F7E0CF86
:10295000CF93DF931F92CDB7DEB7898341E050E07C
:10296000BE016F5F7F4F90E080E00E94FE130F90EA
:10297000DF91CF91089590E020915931233339F4BC
:102980000C96982F990F990F990F80E0089548960B
:10299000F8CFDA01E0912228F0E0FE2FEE27E60FD3
:1029A000F71F90E0982F8827A901BD018E0F9F1F68
:1029B0000C94FE13CF93DF9300D0CDB7DEB77983AD
:1029C0006A8322E030E0AE014F5F5F4F60E170E06C
:1029D0000E94C9140F900F90DF91CF910895CF936B
:1029E000DF9300D0CDB7DEB779836A8322E030E091
:1029F000AE014F5F5F4F64E070E00E94C9140F901A
:102A00000F90DF91CF910895CF93DF931F92CDB7B1
:102A1000DEB72091222830E0322F2227260F371FE1
:102A200090E0982F8827498341E050E0BE016F5F16
:102A30007F4F820F931F0E94FE130F90DF91CF9163
:102A40000895CF93DF931F92CDB7DEB76983DC0182
:102A5000ED91FC910280F381E02D41E050E0BE0158
:102A60006F5F7F4F09950F90DF91CF910895CF93BE
:102A7000DF931F92CDB7DEB76983DC01ED91FC9146
:102A80000280F381E02D41E050E0BE016F5F7F4F97
:102A900009950F90DF91CF910895FC019485FB017A
:102AA0008485981303C081E0983008F080E0089591
:102AB000CF93DF931F92CDB7DEB76983DC01ED9131
:102AC000FC910280F381E02D41E050E0BE016F5F98
:102AD0007F4F09950F90DF91CF91089544E050E02A
:102AE000BC018FE090E00C94FE1344E050E0BC0188
:102AF00085E090E00C94FE1344E050E0BC0181E0DE
:102B000090E00C94FE130F931F93CF93DF93EC018F
:102B100022968C0106581F4FE881F981008CF18DB7
:102B2000E02DCE010995882351F02F96C017D107CB
:102B300099F780E0DF91CF911F910F91089581E087
:102B4000F9CFFC01108A118A089590E080E0089581
:102B500060E08DE00E941F0E61E087E20E941F0E80
:102B600061E086E20C941F0EFC01828181110CC091
:102B70008381811109C08481811106C081E0958122
:102B8000911103C080E0089581E00895FC01608107
:102B90007181828193810E9404530895FC01CB01CD
:102BA000BA010E94045360837183828393830895E2
:102BB000CF92DF92EF92FF920F931F93CF93DF9309
:102BC00000D000D0CDB7DEB79EEDE92E91E3F92E0F
:102BD0000EE711E3811106C082EAE82E81E3F82EA8
:102BE0000EE511E3C7010C960E94C615603A7648BF
:102BF0008140910541F5C70144960E94C615633096
:102C000071058105910509F04DC0E090D834F09030
:102C1000D934C7010E948315882309F44BC0F701FA
:102C2000E857FF4FC080D180E280F38040E050E061
:102C3000BA01C114D104E104F10461F444E050E0AC
:102C400060E070E007C0C12CD12C760141E050E07B
:102C500060E070E0CE0101960E94CE1589819A81D4
:102C6000AB81BC81F801848B958BA68BB78BB701A8
:102C7000A601CE0101960E94CE1589819A81AB8171
:102C8000BC81F801808F918FA28FB38F2496CDBF26
:102C9000DEBFDF91CF911F910F91FF90EF90DF90FA
:102CA000CF900895C12CD12C760143E050E060E034
:102CB00070E0D0CFC12CD12C7601C0CF0F931F93E1
:102CC000CF93DF9300D000D0CDB7DEB78C01CE011B
:102CD00001960E94CE1589819A81AB81BC81F80151
:102CE00080839183A283B38380E090E0A0E0B1E091
:102CF00084839583A683B7831086118612861386F4
:102D00001486158616861786108A118A128A138AE7
:102D10002496CDBFDEBFDF91CF911F910F91089513
:102D2000AF92BF92CF92DF92EF92FF920F931F93D9
:102D3000CF93DF9300D000D0CDB7DEB78C016A010E
:102D40007B018AEC9CE20E94C615AB01BC018EE9B6
:102D500098E20E945E16560184E0A80EB11CD701CD
:102D6000C60183709927AA27BB27892B8A2B8B2B17
:102D700051F0AFEFCA1ADA0AEA0AFA0AF601E65681
:102D8000F74D1382E8CFB701A6017068CE01019616
:102D90000E94CE1589819A81AB81BC8180939A284B
:102DA00090939B28A0939C28B0939D28D801ED91E7
:102DB000FC910480F581E02DC8010995892BB1F3C0
:102DC000D801ED91FC910280F381E02DA5016AE923
:102DD00078E2C8010995D801ED91FC910680F78150
:102DE000E02DC80109952496CDBFDEBFDF91CF91BC
:102DF0001F910F91FF90EF90DF90CF90BF90AF9019
:102E000008956115710581059105D1F0DC01CB01B3
:102E100081302DE79207A105B10520F080E09DE704
:102E2000A0E0B0E08A309105A105B10520F48AE068
:102E300090E0A0E0B0E08093B1339093B233089576
:102E400080EB94E0A0E0B0E0F6CF08950895CF9332
:102E5000DF93EB01CA01B9010E940117CD2B49F4A0
:102E60008091AB33811105C08091AF33DF91CF9159
:102E700008958FEFFBCFCF92DF92EF92FF920F93E7
:102E80001F93CF93DF937C016A018B01D0E0C0E0F8
:102E9000CC15DD0579F0D8016D918D01D701ED914B
:102EA000FC910190F081E02DC7010995019711F483
:102EB0002196EECFCE01DF91CF911F910F91FF9020
:102EC000EF90DF90CF900895FC01208931898685AD
:102ED00097852817390770F484859585A9014F5F78
:102EE0005F4F408B518BFC01E20FF31F608381E049
:102EF00090E0089581E0828B90E080E00895FC01ED
:102F0000848595850895DC01ED91FC91028CF38D0B
:102F1000E02D0994FC01DB0112968D919C91139791
:102F20008283938314964D915D916D917C91179757
:102F3000448355836683778318964D915D916D9197
:102F40007C911B9740875187628773871C968C9171
:102F50001C9784871D968D919C9185879687CF01BC
:102F60000895FC01658776870895DC01ED91FC9159
:102F700002A0F3A1E02D099591E089270895862FFD
:102F8000089581E0862708950895282F2F712295AE
:102F900030E0A90155954795559547954373220F04
:102FA000331F220F331F422B50E0282F30E0B9018E
:102FB00075956795CA01959587958575440F551F39
:102FC0004A7A482B842F869586958695220F331F43
:102FD000220F331F2078962F9072292B6074262B96
:102FE000822B0895CF93DF93D62F0E94C517C82F49
:102FF0008D2F0E94C517E0E4F4E02481982F90956E
:1030000092238C23892B8483DF91CF91089560E2F2
:1030100080E20E94F21768E270E080E090E00E9497
:10302000310F60EA80E00E94F21768E270E080E011
:1030300090E00E94310F60E880E80C94F217FC01E8
:103040004089862F90E09C0153E0220F331F5A9550
:10305000E1F72870242B208B41899C01220F331F1C
:10306000220F331F2870242B218B42899C01220FB1
:10307000331F2870242B228B23896870622B638B6B
:1030800044899C01359527952870242B248B4589EC
:103090009C0135952795359527952870242B258BF0
:1030A00046899C0163E0359527956A95E1F728707C
:1030B000242B268B278974E0959587957A95E1F7DF
:1030C0008870822B878B0895CF93DF93D62F0E9431
:1030D000C517C82F8D2F0E94C517E0E4F4E090813A
:1030E000A82FA0959A232C2F2823922B9083908988
:1030F0003189428953892489D589B689E78993FB27
:10310000992790F9632F70E0759567957595679588
:1031100062707727692B5870652B50E0559547955D
:1031200044705527642B30E0220F331F2071332762
:10313000622B94E0D99F9001112420723327622BD7
:1031400098E0B99F9001112420743327622B90E1FD
:10315000E99FF0011124E078FF276E2B6A23C095C8
:103160008C23682B80E494E0DF91CF910C941F189E
:10317000FC0180819181FC01FF2790FD06C080E069
:1031800094E1E82BF92B8081089580E093E1F9CF59
:103190000F931F93CF93DF9300D0CDB7DEB78C0191
:1031A00019821A82CE0101960E94B818F801808314
:1031B00081E090E089839A83CE0101960E94B8183D
:1031C000F8018183C8010F900F90DF91CF911F917B
:1031D0000F910895FC01FF2790FD12C080E094E15B
:1031E000E82BF92B60838FB7F8949DE923E094BF17
:1031F000209300108FBF8091021081FDFCCF0895B5
:1032000080E093E1EDCFBF92CF92DF92EF92FF92F9
:103210000F931F93CF93DF9300D0CDB7DEB76C0130
:103220007C0102E010E0F701B1907F0109831A836D
:10323000CE0101960E94B818B81621F06B2DC80176
:103240000E94EA180F5F1F4F0E35110561F7C60186
:103250000E94050C8C0119821A82CE0101960E94EF
:10326000B818081729F0602F90E080E00E94EA1853
:1032700081E090E089839A83CE0101960E94B8187C
:10328000181781F0612F81E090E00F900F90DF918F
:10329000CF911F910F91FF90EF90DF90CF90BF9053
:1032A0000C94EA180F900F90DF91CF911F910F911E
:1032B000FF90EF90DF90CF90BF900895DC01ED91EB
:1032C000FC910488F589E02D23E030E009940C940A
:1032D000134E0C94134EE0E6F4E0808110826FEF01
:1032E00080E694E00E941F186EE186E00E94641858
:1032F00066E089EF0C94F2178F929F92AF92BF9283
:10330000CF92DF92EF92FF920F931F93CF93DF93B1
:10331000D82F162F0E94610F4B015C016F5F7F4F0A
:103320008F4F9F4FC090B133D090B233F12CE12C2E
:10333000C0E00FEFD095681979098A099B096C15CF
:103340007D058E059F0508F061C08091AA3381300C
:1033500029F582E10E945E0E811114C00E946B1952
:1033600088E080930434C2E08C2FDF91CF911F91CD
:103370000F91FF90EF90DF90CF90BF90AF909F9014
:103380008F90089584E10E945E0E811107C00E9413
:103390006B1988E080930434C3E0E6CFC11117C0F5
:1033A00081E10E945E0E81112CC080E10E945E0EC0
:1033B000C7E0813031F58091600400936004D093C0
:1033C00064048091A93381110BC068E00CC0C73040
:1033D00061F3C83081F3C93049F0CA3061F011C0DF
:1033E00068E1112391F380E00E94F21780E10E94CE
:1033F0005E0E811109C081E10E945E0E813049F0AC
:10340000CAE00E94610F97CFC9E0FBCFC13009F03D
:10341000ABCF8091A933811103C068E088E004C07C
:1034200068E188E11123C9F30E94F21780916004DA
:103430008FEF8093600480936404C1E095CFE0E651
:10344000F4E0808180838FEF84836EE188E10E94C5
:10345000641868E188E10C94F217109204346FEF5D
:1034600080E00E946418E0E6F4E0808110826FEF53
:1034700080E694E00C941F18CF93C82F80910434F9
:10348000833049F00E941F1A60E880E00E94F21722
:1034900083E08093043460E08C2F0E947C1991E0DB
:1034A000813009F490E0892FCF9108958EE190E06A
:1034B0000E94E50E8FE50E943C1A882311F081E0FE
:1034C00008958FE30E943C1A8111F9CF10920634BF
:1034D00008951F93CF93DF938F3130F0D1E08D2F7C
:1034E000DF91CF911F9108956036C0F391E8960F58
:1034F00097FFF4CF142FC62FD82F8FE30E943C1ACA
:103500008111ECCF8FE50E943C1A8111E7CF123078
:1035100099F480E48D0F0E943C1AD82F8111DECFE0
:10352000CF3F21F482E080930634D9CF8C2F0E94C4
:103530003C1A8111D3CFF6CF80E28D0F0E943C1A46
:10354000D82F8111CBCFCF3F11F481E0ECCF8C2F5E
:103550000E943C1A8823C9F3C1CFAF92BF92CF9289
:10356000DF92EF92FF920F931F93CF93DF93EC01C3
:103570007B01042F8091AE33813030F011E0833035
:1035800020F010E0833009F012E08091AA338230FD
:10359000F9F40E941F1A60E880E80E94F21784E0A4
:1035A000809304346E01CE0CDF1C5E01A094B094B5
:1035B00081E0E81AF108CC16DD0609F441C08991D2
:1035C0009091A933992311F0112331F060E00BC0E1
:1035D0000E941F1A89E0E4CF61E095012C0F3D1F86
:1035E0002E153F0599F70E947C19813021F30023A5
:1035F00071F0C091AA336EE180E0C230D9F40E942C
:10360000641860E880E80E94F217C0930434DF91E8
:10361000CF911F910F91FF90EF90DF90CF90BF90CF
:10362000AF90089560E08DE00E947C196091A9330D
:103630008AE013C00E94641887E080930434E7CFC7
:103640001123A9F28091AE33823081F3833079F275
:10365000813041F76091A9338DE00E947C19C7CF7A
:103660003F924F925F926F927F928F929F92AF9212
:10367000BF92CF92DF92EF92FF920F931F93CF935F
:10368000DF937C018B018091A833D0E0C0E08823D8
:1036900039F091E080E0672B09F490E0C92FD82F32
:1036A000109205348091AA33823059F50E946B192B
:1036B00060E880E80E94F21785E08093043484E19A
:1036C0000E945E0E811121C00E94610F2091B133D2
:1036D0003091B2334B015C01820E931EA11CB11CD0
:1036E00084E10E945E0E811110C00E94610F861657
:1036F0009706A806B90648F084E190E00E94E50E1E
:10370000EFCF0E946B1988E0D8CF312CC0900534E0
:10371000C110B6C084E10E945E0E882309F4B2C0D5
:103720000E94610F4B015C016F5F7F4F8F4F9F4F76
:103730004090B1335090B233712C612CD12C681968
:1037400079098A099B09641575058605970508F0AE
:1037500068C08091AA33813069F482E10E945E0ED4
:10376000882309F462C084E10E945E0E811102C0C8
:10377000C2E05CC0D11048C064E084E00E94F2174F
:103780008FE00E945E0E94E0D92E811144C064E067
:103790000E94F2178EE00E945E0E811102C0CC24BE
:1037A000C39430906804309462E082E00E94F21783
:1037B0008FE00E945E0E813089F562E080E00E9419
:1037C000F217632DC7010E94D90F2196CC2089F1F1
:1037D000C4E08091A833882329F06091B333C701F6
:1037E0000E94D90FC73069F1D091AA336EE180E011
:1037F000D23009F03FC00E94641860E880E80E945F
:10380000F217D09304341EC084E0D81609F4B8CF60
:1038100086E0D81669F20E94610F91CF86E0D82E1B
:10382000FACF82E0C8E0D81201C0C3E0C110D1CF06
:10383000DBCF0115110509F469CFC017D10708F4D2
:1038400065CFC7E0809105348111109205348C2F2B
:10385000DF91CF911F910F91FF90EF90DF90CF906C
:10386000BF90AF909F908F907F906F905F904F90A0
:103870003F9008950E94641887E080930434E2CF5B
:10388000C1E0B2CFC2E0B0CF24E0FC01218321E34C
:1038900020830895DF92EF92FF920F931F93CF93AF
:1038A000DF9300D0CDB7DEB7FB01DC0156961D9249
:1038B0001C9257972281211109C02381211106C032
:1038C0002481211103C02581222359F1411551057D
:1038D00041F17A018F01FC01D08CCE0101960E944A
:1038E000441C89819A810E94F40CA8014E5F5F4FAD
:1038F00024E030E06CE070E08D2D0E94C914B70127
:103900008D2D0E94DA140E94280C81E090E00F9027
:103910000F90DF91CF911F910F91FF90EF90DF906B
:10392000089580E0F3CF9091AC33981302C081E00A
:1039300008958093AC339FEF9093AD33909106340C
:10394000992321F090910434983089F3462F6FEF3A
:103950000E94691A882359F36EE180E00E9464187E
:1039600060E880E80E94F21782E0809304340E94AD
:10397000561A8FEF8093AC3380E008958F929F9218
:10398000AF92BF92CF92DF92EF92FF920F93CF93BD
:10399000DF93EB014A015901C701B6010E940117EB
:1039A000209729F4C091AB33D0E0209701F161E07A
:1039B0008C2F0E94931C882371F1D091A933C09160
:1039C000AE33011105C01092A93383E08093AE336A
:1039D000402FB501C4010E94AD1A011116C0D09349
:1039E000A93381E0C11101C080E08093AE3390E043
:1039F00080E0DF91CF910F91FF90EF90DF90CF901B
:103A0000BF90AF909F908F9008950E94561A8FEFAD
:103A10008093AC33ECCF84E090E0EBCFCF93DF9397
:103A2000EB01CA01B9010E940117209719F5C09155
:103A3000AB33D0E02097F1F480910634882329F04D
:103A40000E94561A8FEF8093AC3385E10E945E0E80
:103A5000811102C00E9407186EE180E00E94641884
:103A600060E880E80E94F21782E08093043490E0DE
:103A700080E008C061E08C2F0E94931C811105C07A
:103A800085E090E0DF91CF91089541E06091AD3302
:103A90008091AC330E94691A8111F2CF84E00E94B8
:103AA0003C1A8111EDCF0E94561A8111E9CF6EE1C7
:103AB0000E94641860E880E80E94F21782E0809318
:103AC00004340E94561A8FEF8093AC33D0CFFB01A1
:103AD00001900020E9F73197AF01461B570BDC013D
:103AE000ED91FC910280F381E02D09948F929F92D9
:103AF000AF92BF92EF92FF920F931F93CF93DF93FA
:103B0000CDB7DEB7A197CDBFDEBF7C01FA01CB01F7
:103B100019A2223008F42AE08E010F5D1F4F822E79
:103B2000912CB12CA12CBF01A50194010E947052CF
:103B3000F901CA016A30F4F4605DD8016E938D0119
:103B4000232B242B252B79F790E080E0109721F090
:103B5000BD01C7010E94671DA196CDBFDEBFDF91E9
:103B6000CF911F910F91FF90EF90BF90AF909F90DA
:103B70008F900895695CE1CFCF92DF92EF92FF9230
:103B80000F931F93CF93DF936B01770FEE08FF081E
:103B9000F7FE1BC0EC016DE20E94D90F8C01442797
:103BA0005527BA014C195D096E097F092AE0CE013B
:103BB0000E94761D800F911FDF91CF911F910F9171
:103BC000FF90EF90DF90CF9008952AE0B701A60113
:103BD000DF91CF911F910F91FF90EF90DF90CF90E9
:103BE0000C94761DCF93DF9300D0CDB7DEB763EB97
:103BF00074E08EEE92E30E94E00F80911336909174
:103C00001436009711F487E196E3BE016F5F7F4F92
:103C1000681B790B8EEE92E30E94BC1D0F900F90F3
:103C2000DF91CF9108958F929F92AF92BF92CF92E2
:103C3000DF92EF92FF920F931F93CF93DF937C015C
:103C40008B016C0182E0C80ED11C4701E5E08E0EAD
:103C5000911CD0E0C0E0F60141916F0150E070E0AE
:103C600060E02AE0C8010E94761D5C016EE2C80196
:103C70000E94D90F8A0D9B1DC80FD91FC814D904E3
:103C800051F7F701458150E070E060E02AE0C8019B
:103C90000E94761D8C0F9D1FDF91CF911F910F9178
:103CA000FF90EF90DF90CF90BF90AF909F908F905C
:103CB00008959C01CB01B9010C94131E0F931F931F
:103CC000CF93DF93EC018B016CE477E10E94E00F6E
:103CD000B801CE010E94671D69E477E1CE010E9420
:103CE000E00FB801CE010E94671D6FE377E1CE01BE
:103CF000DF91CF911F910F910C94E00F62EC70EF68
:103D00000C94671D0F931F93CF93DF93EC010E94D8
:103D1000591E8C01CE010E947E1E800F911FDF91E3
:103D2000CF911F910F9108950F931F93CF93DF931E
:103D3000EC010E94671D8C01CE010E947E1E800F47
:103D4000911FDF91CF911F910F9108950F931F93B2
:103D5000CF93DF93EC01FB01448155816081718138
:103D6000E881F9810280F381E02D09958C01CE0173
:103D70000E947E1E800F911FDF91CF911F910F91A6
:103D800008950F931F93CF93DF93EC010E94E00FF0
:103D90008C01CE010E947E1E800F911FDF91CF917A
:103DA0001F910F910895CF93DF93CDB7DEB7C05425
:103DB000D109CDBFDEBF63EA77E18EEE92E30E94C8
:103DC000C11E6091A6337091A73340E450E0CE014C
:103DD00001960E948E4FBE016F5F7F4F8EEE92E381
:103DE0000E94671D61EA77E18EEE92E30E94E00F88
:103DF000C05CDF4FCDBFDEBFDF91CF9108950F9341
:103E00001F93CF93DF93CDB7DEB7C054D109CDBF99
:103E1000DEBF64EC70EF8EEE92E30E94941E64ECC1
:103E200070EF8EEE92E30E94941E8091A53310E015
:103E300005E0811115C06FE877E18EEE92E30E94F4
:103E4000C11E6CE577E18EEE92E30E94C11EC05C5C
:103E5000DF4FCDBFDEBFDF91CF911F910F9108954E
:103E60008091A533181798F7E091A333F091A4330C
:103E7000109FE00DF11D11246081718140E450E03C
:103E8000CE0101960E948E4FBE016F5F7F4F8EEE76
:103E900092E30E94941E1F5FE3CF0E94FF1E0C94CA
:103EA000D31EAF92BF92CF92DF92EF92FF920F9309
:103EB0001F93CF93DF9300D000D0CDB7DEB78C0136
:103EC0006B017A01809159318333E9F45B01680118
:103ED000C40ED51EC016D10691F10E94F3138FE0D7
:103EE0000E94D50C812F0E94D50C802F0E94D50CEA
:103EF0000F5F1F4F80E00E94D50CF50181935F0199
:103F00000E94E913E7CF843349F50E94F313198324
:103F10000A838F2D8F778B83EC8264E070E0CE0173
:103F200001960E94DF0CA70170E060E0C6010E94CC
:103F30001E54B701C6010E94DF0C0E94E913C7019D
:103F40002496CDBFDEBFDF91CF911F910F91FF90DF
:103F5000EF90DF90CF90BF90AF9008950E94F31341
:103F60000F3F110509F030F419820A831B8263E0C8
:103F700070E0D5CF17FD0BC019820A8333E0169588
:103F800007953A95E1F7007E08600B83F0CFC801F2
:103F900026E0969587952A95E1F7807E19830A8316
:103FA0000115104C18F480618B83E1CF8861FCCF40
:103FB0001F93CF93DF9300D0CDB7DEB7182FCE017C
:103FC00001960E94441C89819A810E94F40C812FE1
:103FD0000E94BB1427E0129FF0011124EF5EFE4CFB
:103FE00022813381377041E050E0BE016F5F7F4F27
:103FF000820F931F0E94511F0E94280C89810F90ED
:104000000F90DF91CF911F910895FC01808D883032
:1040100040F4218D328D232B21F00E94D81F90E097
:1040200008958FEF9FEF0895CF93DF93FC012485D0
:10403000283028F08FEF9FEFDF91CF910895EC01AA
:104040000190F081E02D0084F185E02D0995892B08
:1040500089F38C850E94D81F90E0EECFCF93DF9339
:104060001F92CDB7DEB741E050E0BE016F5F7F4FDA
:104070000E94511F89810F90DF91CF91089590E0A8
:1040800080E00C942E20CF93DF93C4E1D0E00E9417
:104090003F20882361F061E070E080E090E00E94C2
:1040A000310F2197A1F780E0DF91CF91089581E052
:1040B000FBCF1F93CF93DF9300D01F92CDB7DEB716
:1040C00080912328811139C160E372E080E090E0A3
:1040D0000E94310F8091AC32811117C01092AD3225
:1040E0001092AE321092AF321092B0321092B132C2
:1040F0001092B2321092B3321092B4321092B532A2
:104100001092B63281E08093AC328091E3058C7FCF
:104110009091AB32892B8093E30591118BC061E0C4
:1041200084E00E94C60D61E086E00E94C60D809189
:10413000C10884608093C1088091C0088162809327
:10414000C0089091E6328091E7329093C008809346
:10415000C10880910028893208F07FC0E82FF0E084
:10416000E456F0412081263008F077C090E2299F84
:10417000900111243C5F2C5F3F4F20932028309307
:1041800021289FEF893228F4E82FF0E0EB53F0412B
:10419000908190931F28893218F461E00E94C60D27
:1041A0000E94E913CE0101960E94441C89819A81E4
:1041B0000E94F40C84E38093593180E80E94A81493
:1041C0000E944320882309F44BC088E00E94A81471
:1041D0000E943F20883009F043C080E10E94A8146B
:1041E0000E943F208031E1F580E00E94A8140E94E7
:1041F0003F20182F811134C08FE190E00E942E20C3
:10420000833071F580E48093222842E06EE170E013
:10421000812F0E94041542E06FE170E0812F0E941F
:1042200004151F5F183089F70E94280C81E08093E5
:1042300023287CC0913039F461E08EE00E94C60DE5
:1042400061E080E172CF923009F071CF61E08EE1E0
:104250000E94C60D61E080E268CF30E020E08BCFA5
:1042600087E38093593180E80E94A8140E9443207C
:104270008823F9F088E00E94A8140E943F2088302B
:10428000C1F480E10E94A8140E943F20182F8031C1
:1042900081F480E00E94A8140E943F20811109C08F
:1042A00089E390E00E942E20843019F41093222894
:1042B000BBCF83E38093593180E80E94A8140E9409
:1042C0004320882371F180E10E94A8140E943F20BE
:1042D000803139F582E10E94A8140E943F2082318A
:1042E00001F580E00E94A8140E943F20811119C0AE
:1042F00084E08093222815E51B8341E050E0BE0155
:104300006D5F7F4F8BE190E00E94FE13198341E0C7
:1043100050E0BE016F5F7F4F8AE190E00E94FE1384
:1043200083CF109259310E94280C80E02396CDBF94
:10433000DEBFDF91CF911F91089581E0F7CFEF921B
:10434000FF921F93CF93DF93CDB7DEB7C454D1094B
:10435000CDBFDEBF7C01FB0182819381A481B58149
:1043600023968CAF9DAFAEAFBFAF239711E02396DE
:104370001FAF239723964CAD5DAD6EAD7FAD2397F8
:1043800049AF5AAF6BAF7CAF8DA79EA7AFA7B8ABB5
:1043900018AB4DA55EA56FA578A94B8F5C8F6D8F6F
:1043A0007E8F1CAF49AD5AAD6BAD7CAD49A35AA30E
:1043B0006BA37CA32EEA30EF29833A834FEF4B8324
:1043C0004C834D831E822F8338871E8F4B8D5C8DCF
:1043D0006D8D7E8D49875A876B877C871CA349A189
:1043E0005AA16BA17CA14F87588B698B7A8B2B8B41
:1043F0003C8B8D8B9E8BAF8BB88F0E94592088236E
:1044000069F1CE018D5B9F4F0E94441C25968EADB5
:104410009FAD25970E94F40C46E050E0B70189E07B
:1044200090E00E94FE13CE0145960E946E15CE01CB
:1044300009960E947C15CE0103960E9475150E9474
:10444000280C1A8B8F859889A989BA89809399330A
:1044500090939A33A0939B33B0939C33CC5BDF4F04
:10446000CDBFDEBFDF91CF911F91FF90EF900895F8
:104470002091222830E0322F2227620F731F90E014
:10448000982F8827860F971F0C942E20CF93C82F24
:10449000462F61E070E00E94041561E070E08C2F0F
:1044A0000E9438228111F9CFCF9108951F93CF93A5
:1044B000DF9300D0CDB7DEB7182FCE0101960E9452
:1044C000441C89819A810E94F40C68E070E0812F7D
:1044D0000E9446220E94280C0F900F90DF91CF91EE
:1044E0001F9108951F93CF93DF9300D0CDB7DEB710
:1044F000182FCE0101960E94441C89819A810E9446
:10450000F40C60E170E0812F0E9446220E94280C8A
:104510000F900F90DF91CF911F910895CF93DF936C
:10452000EC01888D883020F40E94722288E0888F08
:10453000DF91CF91089563E070E00C9438221F93CF
:10454000CF93DF9300D0CDB7DEB7182FCE01019601
:104550000E94441C89819A810E94F40C812F0E9440
:104560009B22182F0E94280C812F0F900F90DF9113
:10457000CF911F910895EF92FF920F931F93CF93C6
:10458000DF937C0180915931D4E0833309F0D8E086
:1045900009E411E3C0E0F801219131918F01F701A5
:1045A000848195812817390729F0CF5FDC13F3CF79
:1045B00080E006C08C2F0E949F228431B1F781E0F9
:1045C000DF91CF911F910F91FF90EF900895AF92DF
:1045D000BF92CF92DF92EF92FF920F931F93CF93F0
:1045E000DF93EC016B0180915931811120C01A8257
:1045F0001B8288EE93E0A0E0B0E08C839D83AE83C5
:10460000BF838CE790EF8883998388E08C8788EE5E
:1046100093E08D879E87CE01DF91CF911F910F91FF
:10462000FF90EF90DF90CF90BF90AF90089524E07F
:10463000A22E833311F098E0A92E89E4E82E81E3BD
:10464000F82E10E008E0B12CD7012D913D917D01AD
:10465000F601848195812817390771F4812F0E9412
:104660009F22083031F5873111F08C3111F5F701B7
:10467000329710821182012F1F5FA112E5CFB11076
:1046800008C0D601ED91FC910084F185E02DC601B2
:1046900009951A821B8288EE93E0A0E0B0E08C833B
:1046A0009D83AE83BF838CE790EF888399830C87CB
:1046B000AECF843139F08111DFCFF701329710820C
:1046C0001182DACFBB24B394D7CFCF93DF93EC0121
:1046D0008C858830D0F40E949F22843189F0882311
:1046E00079F0883169F021E08C3159F4E881F98161
:1046F0000084F185E02DCE01099521E0892B09F494
:1047000020E0822FDF91CF91089580E0FBCFCF9200
:10471000DF92EF92FF92CF93DF93EC018C8588308C
:1047200068F40E9456220E94610F6B017C018C8507
:104730000E949F22811109C088E08C87DF91CF9170
:10474000FF90EF90DF90CF90089561E070E080E0FF
:1047500090E00E94310F0E94610FAB01BC014C1927
:104760005D096E097F098D859E85B0E0A0E0481740
:1047700059076A077B07D8F28C850E947222DCCF2A
:104780001F93CF93DF9300D0CDB7DEB7FC01108D20
:10479000CE0101960E94441C89819A810E94F40CEA
:1047A00060E270E0812F0E94462262E070E0812F7B
:1047B0000E94382284FD22C062E070E0812F0E94B6
:1047C000382283FF10C048E162E070E0812F0E9430
:1047D00004150E94280C80E090E00F900F90DF916C
:1047E000CF911F9108950E94280CCE0101960E943E
:1047F000441C89819A810E94F40CD7CF40E162E089
:1048000070E0812F0E9404150E94280C81E0E4CF03
:10481000DA01E0912228F0E0FE2FEE27E60FF71FE5
:1048200090E0982F8827A901BD018E0F9F1F0C943F
:10483000511F8F929F92AF92BF92CF92DF92EF92D1
:10484000FF920F931F93CF93DF93CDB7DEB760979F
:10485000CDBFDEBF7C0190915931992371F108E001
:10486000933309F404E05B01CE0101960E94441CDD
:1048700089819A810E94F40C9E012F5F3F4F69014C
:10488000490110E0812F0E949B22F40181934F0186
:104890008823D9F01F5F0113F5CF00E0F601819165
:1048A0006F018D3161F0883151F08A51823038F0DA
:1048B0000F5F1013F3CF0E94280C18E08AC060E14C
:1048C00070E0802F0E944622102FC12ED12CF601BD
:1048D000EE0FFF1FE75BFE4C108211828AEF90E023
:1048E0000E94E50E42E870E060E0812F0E9404150E
:1048F0004FEF62E070E0812F0E940415B501A11412
:10490000B10491F4809103289091042801968115B7
:10491000F0EC9F0708F46EC080930328909304285E
:104920006091032870910428812F0E94EF1486E083
:10493000E2E3FFEEDE01199601900D928A95E1F710
:10494000F70183818F778C8784818D8785818E871E
:10495000A7014E5F5F4F24E030E06CE070E0812FF4
:104960000E94C914B501812F0E94DA1426E030E0BC
:10497000AE01475F5F4F66E070E0812F0E94C9146F
:1049800061E070E0812F0E94462227E02C9DC0014B
:104990002D9D900D11249C012F5E3E4C7901F90153
:1049A0001082118222E030E0AE01415F5F4F68E289
:1049B00070E0812F0E9408248F8598899827892785
:1049C0009827F701828393831682148215820E94AE
:1049D000280C812F6096CDBFDEBFDF91CF911F9154
:1049E0000F91FF90EF90DF90CF90BF90AF909F908E
:1049F0008F90089580E090EC8FCFCF92DF92EF926E
:104A0000FF920F931F93CF93DF93CDB7DEB7269717
:104A1000CDBFDEBF8C016B017A01FC01808D883037
:104A200010F40E9472228EEA90EF89839A83F60135
:104A300082819381A481B5818B839C83AD83BE8366
:104A4000B701CE0101960E941924F801808F8830A9
:104A500088F4E486F586118E128E81E02696CDBF0D
:104A6000DEBFDF91CF911F910F91FF90EF90DF900C
:104A7000CF90089580E0F2CF7F928F929F92AF9275
:104A8000BF92CF92DF92EF92FF920F931F93CF933B
:104A9000DF9300D0CDB7DEB7782E8B014A015901E4
:104AA00022E030E0AE014F5F5F4F64E270E00E94B1
:104AB0000824E980FA80FE24EF24FE24E00EF11E93
:104AC0009701377040915931072D10E0433309F0B9
:104AD00042C0085F1F4F102F0027110F110F110F39
:104AE000C901800F911F4733C9F1A9014A0D5B1D10
:104AF0004130584098F160E078E06B01C21AD30A67
:104B0000A601B4010E94FE13A5014C195D09B40170
:104B10006C0D7D1DC8010E94FE13EA0CFB1CF9827E
:104B2000EA8222E030E0AE014F5F5F4F64E270E066
:104B3000872D0E94C9140F900F90DF91CF911F9184
:104B40000F91FF90EF90DF90CF90BF90AF909F902C
:104B50008F907F900895005F1F4FBDCFA501B401D6
:104B6000DACFEF92FF921F93CF93DF9300D0CDB7B0
:104B7000DEB7182F22E030E0AE014F5F5F4F60E2FA
:104B800070E00E940824E980FA80FE24EF24FE24CD
:104B900022E030E0AE014F5F5F4F60E270E0812FB6
:104BA0000E94082489819A81982789279827E816E6
:104BB000F90689F487E0189FF0011124EF5EFE4C9E
:104BC000E482F582C7010F900F90DF91CF911F9182
:104BD000FF90EF9008957C01DBCFFF920F931F931E
:104BE000CF93DF9300D0CDB7DEB7F82ECE0101967C
:104BF0000E94441C89819A810E94F40C8F2D0E948E
:104C0000B1258C018F2D0E949B22F82E0E94280C2A
:104C100087E1F81629F08CE1F81611F010E000E0B9
:104C2000C8010F900F90DF91CF911F910F91FF90CE
:104C30000895CF93DF93EC018C85883060F40E9457
:104C40009F22873111F08C3131F48C850E94ED2543
:104C50008115984088F3DF91CF910895FC0124A13C
:104C6000283018F448960C9419260895FC01848580
:104C7000883010F40C94ED2590E080E00895AF9218
:104C8000BF92CF92DF92EF92FF920F931F93CF9339
:104C9000DF9300D0CDB7DEB7F82E6B018A0141302B
:104CA000584010F000E018E0CE0101960E94441C2C
:104CB00089819A810E94F40C8F2D0E94B1255C019C
:104CC0008F2D0E949B22E82E0E94280C87E1E81677
:104CD00019F08CE1E81235C0A016B10628F3CE0118
:104CE00001960E94441C89819A810E94F40C9801CB
:104CF000A60170E060E08F2D0E943C2560E270E02C
:104D00008F2D0E94462262E070E08F2D0E94382293
:104D100084FD25C08F2D0E949B22811115C00E9409
:104D2000280C10E000E0C8010F900F90DF91CF91A8
:104D30001F910F91FF90EF90DF90CF90BF90AF90B9
:104D4000089510E000E0CBCF0E94280CCE01019620
:104D50000E94441C89819A810E94F40CD4CF40E1C6
:104D600062E070E08F2D0E9404150E94280CDBCFBA
:104D70000F931F93CF93DF938C01EA01FC0184858D
:104D8000883048F40E943F26892B39F481E090E076
:104D9000F80182839383D0E0C0E0CE01DF91CF9110
:104DA0001F910F9108957F928F929F92AF92BF9221
:104DB000CF92DF92EF92FF920F931F93CF93DF93E7
:104DC00000D0CDB7DEB77C014B01742EC52EFC019F
:104DD000A688B788D08CCE0101960E94441C898198
:104DE0009A810E94F40C8D2D0E94B125072D1C2D57
:104DF0008017910708F48C019801A401B5018D2D4D
:104E00000E943C250E94280CF70186899789800F13
:104E1000911F868B978BC8010F900F90DF91CF91D8
:104E20001F910F91FF90EF90DF90CF90BF90AF90C8
:104E30009F908F907F900895FF920F931F93CF9331
:104E4000DF9300D0CDB7DEB7F82E22E030E0AE0120
:104E50004F5F5F4F66E270E00E94082409811A816B
:104E600010270127102722E030E0AE014F5F5F4F8F
:104E700066E270E08F2D0E94082489819A8198272C
:104E8000892798270817190749F4C8010F900F9030
:104E9000DF91CF911F910F91FF9008958C01E3CF87
:104EA000EF92FF920F931F93CF93DF9300D0CDB774
:104EB000DEB7182F87E0189F90011124F901EF5EEB
:104EC000FE4C7F01808191810097B1F4CE01019663
:104ED0000E94441C89819A810E94F40C812F0E94B7
:104EE0001C278C010E94280CF70186819801281B41
:104EF0003109C901208331830F900F90DF91CF9149
:104F00001F910F91FF90EF9008959F92AF92BF92E3
:104F1000CF92DF92EF92FF920F931F93CF93DF9385
:104F2000EC017B0180915931811121C01A821B82D1
:104F300088EE93E0A0E0B0E08C839D83AE83BF83D6
:104F40008CE790EF8883998388E08C8788EE93E0E4
:104F50008D879E87CE01DF91CF911F910F91FF909A
:104F6000EF90DF90CF90BF90AF909F90089534E086
:104F7000932E833311F028E0922E89E4C82E81E32A
:104F8000D82E10E098E0B92EA12CD6012D913D919C
:104F90006D01F701848195812817390791F4812FDC
:104FA0000E949F22082F873111F08C3139F5812F13
:104FB0000E945027892B59F50C3119F4812F0E943A
:104FC00056221F5F9112E1CFA11008C0D701ED91C9
:104FD000FC910084F185E02DC70109951A821B829E
:104FE00088EE93E0A0E0B0E08C839D83AE83BF8326
:104FF0008CE790EF88839983BC86A8CF843149F0F1
:105000008111DFCFF601329710821182DACFB12EF3
:10501000D8CFAA24A394D5CF8F929F92AF92BF925C
:10502000CF92DF92EF92FF920F931F93CF93DF9374
:10503000CDB7DEB72F97CDBFDEBF5C014B017A0144
:10504000809159318823B1F104E0833309F008E0FD
:10505000B501CE0101960E94852789E4C82E81E31F
:10506000D82E10E0F601219131916F01F501848174
:1050700095812817390751F4812F0E949F2287318B
:1050800029F4A701B401812F0E943F261F5F01135D
:10509000E9CFC7012F96CDBFDEBFDF91CF911F9122
:1050A0000F91FF90EF90DF90CF90BF90AF909F90C7
:1050B0008F900895F12CE12CECCFEF92FF920F939B
:1050C0001F93CF93DF93CDB7DEB72F97CDBFDEBF52
:1050D0008C017C0188E1E80EF11CF80184A1883084
:1050E00030F5C7010E94652381111DC0C7010E94D0
:1050F00087231B821C8288EE93E0A0E0B0E08D83C2
:105100009E83AF83B8878CE790EF89839A8388E08A
:105110008D8788EE93E08E879F87BE016F5F7F4FFC
:10512000C7010E948A17F80184A1883068F0F8014D
:1051300066897789CE0101960E948527BE016F5F3F
:105140007F4FC7010E948A17F80184A1883038F484
:105150000E94610FF80165A776A787A790AB2F96ED
:10516000CDBFDEBFDF91CF911F910F91FF90EF90E8
:105170000895CF93DF93EC010E945D28CE014896FD
:105180002CA1283020F4DF91CF910C9414208FEFC4
:105190009FEFDF91CF910895FC018485883010F452
:1051A0000C94502790E080E00895EF92FF920F93C7
:1051B0001F93CF93DF93CDB7DEB72F97CDBFDEBF61
:1051C000FC0126893789232B61F490E080E02F963B
:1051D000CDBFDEBFDF91CF911F910F91FF90EF9078
:1051E00008958C010E945D287801F8E1EF0EF11C12
:1051F000F80184A1883060F066897789CE01019634
:105200000E948527BE016F5F7F4FC7010E948A17EA
:10521000F80184A18830C8F6C7010E94CC28D7CFF6
:105220004F925F927F928F929F92AF92BF92CF9256
:10523000DF92EF92FF920F931F93CF93DF9300D0F3
:10524000CDB7DEB7782E6B014A01A82EB12C27E02E
:10525000829FC0011124FC01EF5EFE4C7F010081A2
:105260001181CE0101960E94441C89819A810E947D
:10527000F40C0815190554F4872D0E941C27F7011A
:1052800026818C01021B1109008311830115110570
:1052900029F5872D0E949B22843159F0882349F0FB
:1052A00001E010E08C3111F410E000E0119501955F
:1052B00011090E94280CC8010F900F90DF91CF9127
:1052C0001F910F91FF90EF90DF90CF90BF90AF9024
:1052D0009F908F907F905F904F90089580169106D9
:1052E0000CF4840187E08A9DF0018B9DF00D112460
:1052F000EF5EFE4CE280F380C114D10451F127012E
:10530000F7E05F22872D0E94BB14840D951D20912C
:105310005931273309F453C09801240D351D21302C
:10532000384008F44CC020E038E049018418950862
:10533000A401B6010E94511F2601480C591C6801A6
:10534000C818D908872D0E94BB14A601B2010E947B
:10535000511FE00EF11E87E08A9DF0018B9DF00D3C
:105360001124EF5EFE4CE282F38220813181201B0A
:10537000310B208331838681800F912F911D8A3FCD
:10538000910510F4232BF1F487E08A9DF0018B9DA9
:10539000F00D1124EF5EFE4C1682F982EA8222E0C3
:1053A00030E0AE014F5F5F4F68E270E0872D0E94F2
:1053B000C91460E470E0872D0E9446227ACFA801CC
:1053C000B601C5CF868375CFCF93DF93FC01218DC6
:1053D000328D2115310529F48FEF9FEFDF91CF91A9
:1053E0000895EC01808D4217530708F0A9010E942F
:1053F00010291816190684F7298D3A8D281B390BA8
:10540000298F3A8FEBCF0F931F93CF93DF931F9288
:10541000CDB7DEB7FC01218D328D232B41F48FEF08
:105420009FEF0F90DF91CF911F910F9108958C0105
:1054300041E050E0BE016F5F7F4FFC01808D0E9414
:105440001029181619065CF7F801818D928D0197C5
:10545000818F928F898190E0E4CFCF93DF931F9269
:10546000CDB7DEB741E050E0BE016F5F7F4FFC017A
:1054700084850E9410291816190634F4898190E059
:105480000F90DF91CF9108958FEF9FEFF9CFCF93DA
:10549000DF93EC010E945D28CE0148962CA12830B4
:1054A00020F4DF91CF910C942D2A8FEF9FEFDF91A5
:1054B000CF910895FC018485883010F40C94102954
:1054C00090E080E008958F929F92BF92CF92DF92FA
:1054D000EF92FF920F931F93CF93DF93CDB7DEB779
:1054E0002A97CDBFDEBF90915931992379F108E019
:1054F000933309F404E06B01B82ECE0101960E94AB
:10550000441C89819A810E94F40C9E012F5F3F4FB9
:105510007901490110E0812F0E949B22F4018193BF
:105520004F018823D9F01F5F0113F5CF00E0F70189
:1055300091917F019D3161F0983151F09A519230F3
:1055400038F00F5F1013F3CF0E94280C18E060C0F2
:1055500060E170E0802F0E944622102FE12EF12C96
:10556000F701EE0FFF1FE75BFE4C108211828AEFFE
:1055700090E00E94E50E4B2D70E060E0812F0E94CC
:1055800004154FEF62E070E0812F0E940415B60110
:10559000CD2891F4809103289091042801968115DB
:1055A000F0EC9F0708F444C08093032890930428EC
:1055B0006091032870910428812F0E94EF1461E00C
:1055C00070E0812F0E94462227E02E9DC0012F9D72
:1055D000900D11249C012F5E3E4C7901F90110823F
:1055E000118222E030E0AE01475F5F4F68E270E079
:1055F000812F0E94082489859A85982789279827D2
:10560000F701828393831682148215820E94280CEC
:10561000812F2A96CDBFDEBFDF91CF911F910F91D1
:10562000FF90EF90DF90CF90BF909F908F90089564
:1056300080E090ECB9CF0F931F93CF93DF93EC01F1
:105640008B01888D883010F40E947222B80182E0AC
:105650000E94632A888F883050F40C871D87198E2A
:105660001A8E81E0DF91CF911F910F91089580E014
:10567000F9CFEF92FF921F93CF93DF9300D0CDB776
:10568000DEB77C01FC016481758181E20E94632A9E
:10569000182F883090F4CE0101960E94441C898115
:1056A0009A810E94F40C812F0E949B22833169F021
:1056B0000E94280C812F0E9456220F900F90DF919C
:1056C000CF911F91FF90EF90089562E070E0812FDD
:1056D0000E9446220E94280CF70184819581E12FC7
:1056E000F0E0EE0FFF1FE75BFE4C80839183E5CF78
:1056F000AF92BF92CF92DF92EF92FF920F931F93E0
:10570000CF93DF9300D0CDB7DEB78C016B015A0188
:10571000FC018485883058F40E949F22882321F060
:10572000F80184850E94562288E0F8018487F601FA
:1057300082819381A481B5810097A105B10579F497
:1057400090E080E00F900F90DF91CF911F910F912B
:10575000FF90EF90DF90CF90BF90AF9008958F3F74
:105760009F4FAF4FBF4F61F370E060E081E20E9456
:10577000632AF82EF8018487F7E0F81708F3CE01C2
:1057800001960E94441C89819A810E94F40CA60112
:105790004E5F5F4F24E030E06CE070E08F2D0E94A0
:1057A000C914B5018F2D0E94DA1464E070E08F2DCA
:1057B0000E9446220E94280C0E94610F6B017C010E
:1057C000F80184850E949F22873129F18C3119F1DB
:1057D000882309F4B5CF0E94610FAB01BC014C19BD
:1057E0005D096E097F09F80185859685B0E0A0E026
:1057F00084179507A607B70738F061E070E080E0EE
:1058000090E00E94310FDCCF84850E94722288E0F4
:10581000F801848795CF81E090E094CF0F931F9398
:10582000CF93DF9300D0CDB7DEB7FC01248510E025
:1058300000E02830D8F48C01CE0101960E94441C6F
:1058400089819A810E94F40C22E030E0AE014F5F22
:105850005F4F60E170E0F80184850E9408240981AF
:105860001A811027012710270E94280CC8010F90C9
:105870000F90DF91CF911F910F9108950F931F9378
:10588000CF93DF9300D0CDB7DEB7FC01248510E0C5
:1058900000E02830D8F48C01CE0101960E94441C0F
:1058A00089819A810E94F40C22E030E0AE014F5FC2
:1058B0005F4F64E070E0F80184850E94082409814C
:1058C0001A811027012710270E94280CC8010F9069
:1058D0000F90DF91CF911F910F9108950F931F9318
:1058E000CF93DF9300D0CDB7DEB78C018EEA90EF77
:1058F000F801808391831282138214821582CE0173
:1059000001960E94441C89819A810E94F40CB8017E
:105910006E5F7F4F44E050E08FE090E00E94511FA7
:105920000E94280CC8010F900F90DF91CF911F911A
:105930000F9108952F923F924F925F926F927F92B4
:105940008F929F92AF92BF92CF92DF92EF92FF928F
:105950000F931F93CF93DF93CDB7DEB7C651D240DD
:10596000CDBFDEBF4C018B017A01CD5FDD4F1882C8
:105970001982C350D24082EF9FEECF5FDD4F888304
:105980009983C150D240CB5FDD4F88829982C55048
:10599000D240C55FDD4F18821982CB50D240CE0174
:1059A0000196C95FDD4F88839983C750D24080E05C
:1059B00092E0C75FDD4F88839983C950D240672B3F
:1059C00009F460C265EC70EFC8010E944354892B52
:1059D00009F083C06EEA76E1CE018F5F9D4F0E9491
:1059E000E00F6BED73E1CE018F5F9D4F0E94E00FE2
:1059F000B701CE018F5F9D4F0E94BC1D6EEC73E11D
:105A0000CE018F5F9D4F0E94E00F68E773E1CE01EA
:105A10008F5F9D4F0E94E00FCE01835F9D4F0E94DC
:105A20006E2CBE01635F7D4FCE018F5F9D4F0E9444
:105A3000591E6DEE72E1CE018F5F9D4F0E94E00F07
:105A4000CE01835F9D4F0E946E2CBE01635F7D4F30
:105A5000CE018F5F9D4F0E94591E64E672E1CE0118
:105A60008F5F9D4F0E94E00F63E470E1CE018F5F76
:105A70009D4F0E94E00F67EC70EFCE018F5F9D4F4E
:105A80000E945E1E6DEC70EFCE018F5F9D4F0E94F5
:105A90005E1E62ED70EFCE018F5F9D4F0E945E1E15
:105AA00068ED70EFCE018F5F9D4F0E945E1E6DED21
:105AB00070EFCE018F5F9D4F0E945E1E6FEA78E00F
:105AC000CE018F5F9D4F0E94E00F6EE978E0CE011E
:105AD0008F5F9D4F0E94E00F14C06CEE70EFC80105
:105AE0000E944354892B49F562E077E1CE018F5F34
:105AF0009D4F0E94E00FB701CE018F5F9D4F0E9426
:105B0000BC1DCE018F5F9D4F0E943513CA5EDD4FD5
:105B1000CDBFDEBFDF91CF911F910F91FF90EF902E
:105B2000DF90CF90BF90AF909F908F907F906F90BD
:105B30005F904F903F902F90089561EF70EFC801F4
:105B40000E9443547C01892B09F09CC062E077E1FC
:105B5000CE018F5F9D4F0E94E00FC090B133D09077
:105B6000B23383E290E08093B1339093B23310E08C
:105B700000E0812C912C540122E0322E412C512C3A
:105B8000320143948091AB33801761F141E06FEFB4
:105B9000802F0E94691A81112AC060E880E80E9463
:105BA000F21780E496E00E94E50E81E10E945E0E0D
:105BB00081110EC0D301C201002E04C0880F991FAD
:105BC000AA1FBB1F0A94D2F7882A992AAA2ABB2A9D
:105BD0006EE180E00E94641860E880E80E94F2179D
:105BE000309204340F5F1F4F0F31110559F6C092E8
:105BF000B133D092B2336EE180E00E94641860E865
:105C000080E80E94F21782E080930434D501C40139
:105C10000E2C04C0B695A795979587950A94D2F750
:105C200080FF28C06EE878E0CE018F5F9D4F0E9414
:105C3000E00FB701CE018F5F9D4F0E94BC1D6BE846
:105C400078E0CE018F5F9D4F0E94E00F66EF70EF0E
:105C5000CE018F5F9D4F0E94671DB701CE018F5F00
:105C60009D4F0E94BC1D61E878E0CE018F5F9D4F83
:105C70000E94E00F2FEFE21AF20A30E2E316F1047D
:105C800029F63FCF43E050E06CEF70EFC8010E946F
:105C90005354892B09F0F6C03E018BEE681A8DEF44
:105CA000780A8FEF9FEFF301808391832E01FDEE41
:105CB0004F1AFDEF5F0AF201808391837E01F3EFBB
:105CC000EF1AFDEFFF0AF70180839183FF92EF92B5
:105CD0005F924F927F926F9280E091EF9F938F93AC
